{
    "_format": "hh-sol-artifact-1",
    "contractName": "ChallanManagement",
    "sourceName": "contracts/ChallanManagement.sol",
    "abi": [
        {
            "inputs": [],
            "stateMutability": "nonpayable",
            "type": "constructor"
        },
        {
            "anonymous": false,
            "inputs": [
                {
                    "indexed": true,
                    "internalType": "address",
                    "name": "user",
                    "type": "address"
                },
                {
                    "indexed": false,
                    "internalType": "uint256",
                    "name": "challanId",
                    "type": "uint256"
                },
                {
                    "indexed": false,
                    "internalType": "uint256",
                    "name": "vehicleId",
                    "type": "uint256"
                },
                {
                    "indexed": false,
                    "internalType": "uint256",
                    "name": "amount",
                    "type": "uint256"
                },
                {
                    "indexed": false,
                    "internalType": "string",
                    "name": "reason",
                    "type": "string"
                },
                {
                    "indexed": false,
                    "internalType": "uint256",
                    "name": "issueDate",
                    "type": "uint256"
                }
            ],
            "name": "ChallanIssued",
            "type": "event"
        },
        {
            "inputs": [
                {
                    "internalType": "address",
                    "name": "",
                    "type": "address"
                },
                {
                    "internalType": "uint256",
                    "name": "",
                    "type": "uint256"
                }
            ],
            "name": "Challans",
            "outputs": [
                {
                    "internalType": "uint256",
                    "name": "challanId",
                    "type": "uint256"
                },
                {
                    "internalType": "uint256",
                    "name": "vehicleId",
                    "type": "uint256"
                },
                {
                    "internalType": "uint256",
                    "name": "amount",
                    "type": "uint256"
                },
                {
                    "internalType": "bool",
                    "name": "paid",
                    "type": "bool"
                },
                {
                    "internalType": "string",
                    "name": "reason",
                    "type": "string"
                },
                {
                    "internalType": "uint256",
                    "name": "issueDate",
                    "type": "uint256"
                }
            ],
            "stateMutability": "view",
            "type": "function"
        },
        {
            "inputs": [
                {
                    "internalType": "uint256",
                    "name": "_challanId",
                    "type": "uint256"
                }
            ],
            "name": "getChallanDetails",
            "outputs": [
                {
                    "components": [
                        {
                            "internalType": "uint256",
                            "name": "challanId",
                            "type": "uint256"
                        },
                        {
                            "internalType": "uint256",
                            "name": "vehicleId",
                            "type": "uint256"
                        },
                        {
                            "internalType": "uint256",
                            "name": "amount",
                            "type": "uint256"
                        },
                        {
                            "internalType": "bool",
                            "name": "paid",
                            "type": "bool"
                        },
                        {
                            "internalType": "string",
                            "name": "reason",
                            "type": "string"
                        },
                        {
                            "internalType": "uint256",
                            "name": "issueDate",
                            "type": "uint256"
                        }
                    ],
                    "internalType": "struct ChallanManagement.Challan",
                    "name": "",
                    "type": "tuple"
                }
            ],
            "stateMutability": "view",
            "type": "function"
        },
        {
            "inputs": [],
            "name": "getUserChallanCount",
            "outputs": [
                {
                    "internalType": "uint64",
                    "name": "",
                    "type": "uint64"
                }
            ],
            "stateMutability": "view",
            "type": "function"
        },
        {
            "inputs": [
                {
                    "internalType": "address",
                    "name": "_userAddress",
                    "type": "address"
                }
            ],
            "name": "getUserChallans",
            "outputs": [
                {
                    "components": [
                        {
                            "internalType": "uint256",
                            "name": "challanId",
                            "type": "uint256"
                        },
                        {
                            "internalType": "uint256",
                            "name": "vehicleId",
                            "type": "uint256"
                        },
                        {
                            "internalType": "uint256",
                            "name": "amount",
                            "type": "uint256"
                        },
                        {
                            "internalType": "bool",
                            "name": "paid",
                            "type": "bool"
                        },
                        {
                            "internalType": "string",
                            "name": "reason",
                            "type": "string"
                        },
                        {
                            "internalType": "uint256",
                            "name": "issueDate",
                            "type": "uint256"
                        }
                    ],
                    "internalType": "struct ChallanManagement.Challan[]",
                    "name": "",
                    "type": "tuple[]"
                }
            ],
            "stateMutability": "view",
            "type": "function"
        },
        {
            "inputs": [],
            "name": "getVehicleChallanCount",
            "outputs": [
                {
                    "internalType": "uint64",
                    "name": "",
                    "type": "uint64"
                }
            ],
            "stateMutability": "view",
            "type": "function"
        },
        {
            "inputs": [
                {
                    "internalType": "uint256",
                    "name": "_vehicleId",
                    "type": "uint256"
                },
                {
                    "internalType": "uint256",
                    "name": "_amount",
                    "type": "uint256"
                },
                {
                    "internalType": "string",
                    "name": "_reason",
                    "type": "string"
                }
            ],
            "name": "issueChallan",
            "outputs": [],
            "stateMutability": "nonpayable",
            "type": "function"
        },
        {
            "inputs": [],
            "name": "owner",
            "outputs": [
                {
                    "internalType": "address",
                    "name": "",
                    "type": "address"
                }
            ],
            "stateMutability": "view",
            "type": "function"
        },
        {
            "inputs": [
                {
                    "internalType": "uint256",
                    "name": "_challanId",
                    "type": "uint256"
                }
            ],
            "name": "payChallan",
            "outputs": [],
            "stateMutability": "payable",
            "type": "function"
        },
        {
            "inputs": [],
            "name": "timeCall",
            "outputs": [
                {
                    "internalType": "uint256",
                    "name": "",
                    "type": "uint256"
                }
            ],
            "stateMutability": "view",
            "type": "function"
        },
        {
            "inputs": [],
            "name": "userChallanCount",
            "outputs": [
                {
                    "internalType": "uint64",
                    "name": "",
                    "type": "uint64"
                }
            ],
            "stateMutability": "view",
            "type": "function"
        },
        {
            "inputs": [],
            "name": "vehicleChallanCount",
            "outputs": [
                {
                    "internalType": "uint64",
                    "name": "",
                    "type": "uint64"
                }
            ],
            "stateMutability": "view",
            "type": "function"
        }
    ],
    "bytecode": "0x608060405234801561001057600080fd5b50336000806101000a81548173ffffffffffffffffffffffffffffffffffffffff021916908373ffffffffffffffffffffffffffffffffffffffff160217905550611461806100606000396000f3fe60806040526004361061009c5760003560e01c806371d6d9ac1161006457806371d6d9ac146101765780638da5cb5b146101b3578063a9ad498e146101de578063b12106b7146101fa578063eff1816e14610237578063fdd10669146102625761009c565b80630c25b335146100a157806321e0c115146100cc57806347cc14a6146100f757806354acf9221461012257806366cc9e481461014b575b600080fd5b3480156100ad57600080fd5b506100b66102a4565b6040516100c391906110c4565b60405180910390f35b3480156100d857600080fd5b506100e16102ac565b6040516100ee91906111a1565b60405180910390f35b34801561010357600080fd5b5061010c6102c9565b60405161011991906111a1565b60405180910390f35b34801561012e57600080fd5b5061014960048036038101906101449190610c57565b6102e3565b005b34801561015757600080fd5b50610160610481565b60405161016d91906111a1565b60405180910390f35b34801561018257600080fd5b5061019d60048036038101906101989190610c2e565b61049b565b6040516101aa91906110a2565b60405180910390f35b3480156101bf57600080fd5b506101c861060f565b6040516101d59190611025565b60405180910390f35b6101f860048036038101906101f39190610c2e565b610633565b005b34801561020657600080fd5b50610221600480360381019061021c9190610bc9565b6107dd565b60405161022e9190611040565b60405180910390f35b34801561024357600080fd5b5061024c610950565b60405161025991906111a1565b60405180910390f35b34801561026e57600080fd5b5061028960048036038101906102849190610bf2565b61096e565b60405161029b969594939291906110df565b60405180910390f35b600043905090565b60008060149054906101000a900467ffffffffffffffff16905090565b600060149054906101000a900467ffffffffffffffff1681565b600033426040516020016102f8929190610ff9565b6040516020818303038152906040528051906020012060001c9050600061031d6102a4565b905060006040518060c00160405280848152602001878152602001868152602001600015158152602001858152602001838152509050600260003373ffffffffffffffffffffffffffffffffffffffff1673ffffffffffffffffffffffffffffffffffffffff16815260200190815260200160002081908060018154018082558091505060019003906000526020600020906006020160009091909190915060008201518160000155602082015181600101556040820151816002015560608201518160030160006101000a81548160ff0219169083151502179055506080820151816004019080519060200190610416929190610a5c565b5060a0820151816005015550503373ffffffffffffffffffffffffffffffffffffffff167f4242fceb1b2521c6a8e2dc3cc6ea20fe7eed78bcdb67fe1f03ed11b0b030997d8488888887604051610471959493929190611147565b60405180910390a2505050505050565b600160009054906101000a900467ffffffffffffffff1681565b6104a3610ae2565b600260003373ffffffffffffffffffffffffffffffffffffffff1673ffffffffffffffffffffffffffffffffffffffff168152602001908152602001600020828154811061051a577f4e487b7100000000000000000000000000000000000000000000000000000000600052603260045260246000fd5b90600052602060002090600602016040518060c00160405290816000820154815260200160018201548152602001600282015481526020016003820160009054906101000a900460ff1615151515815260200160048201805461057c90611321565b80601f01602080910402602001604051908101604052809291908181526020018280546105a890611321565b80156105f55780601f106105ca576101008083540402835291602001916105f5565b820191906000526020600020905b8154815290600101906020018083116105d857829003601f168201915b505050505081526020016005820154815250509050919050565b60008054906101000a900473ffffffffffffffffffffffffffffffffffffffff1681565b6000600260003373ffffffffffffffffffffffffffffffffffffffff1673ffffffffffffffffffffffffffffffffffffffff16815260200190815260200160002082815481106106ac577f4e487b7100000000000000000000000000000000000000000000000000000000600052603260045260246000fd5b906000526020600020906006020190508060030160009054906101000a900460ff161561070e576040517f08c379a000000000000000000000000000000000000000000000000000000000815260040161070590611062565b60405180910390fd5b8060020154341015610755576040517f08c379a000000000000000000000000000000000000000000000000000000000815260040161074c90611082565b60405180910390fd5b60018160030160006101000a81548160ff02191690831515021790555060008054906101000a900473ffffffffffffffffffffffffffffffffffffffff1673ffffffffffffffffffffffffffffffffffffffff166108fc349081150290604051600060405180830381858888f193505050501580156107d8573d6000803e3d6000fd5b505050565b6060600260008373ffffffffffffffffffffffffffffffffffffffff1673ffffffffffffffffffffffffffffffffffffffff168152602001908152602001600020805480602002602001604051908101604052809291908181526020016000905b8282101561094557838290600052602060002090600602016040518060c00160405290816000820154815260200160018201548152602001600282015481526020016003820160009054906101000a900460ff161515151581526020016004820180546108aa90611321565b80601f01602080910402602001604051908101604052809291908181526020018280546108d690611321565b80156109235780601f106108f857610100808354040283529160200191610923565b820191906000526020600020905b81548152906001019060200180831161090657829003601f168201915b505050505081526020016005820154815250508152602001906001019061083e565b505050509050919050565b6000600160009054906101000a900467ffffffffffffffff16905090565b6002602052816000526040600020818154811061098a57600080fd5b9060005260206000209060060201600091509150508060000154908060010154908060020154908060030160009054906101000a900460ff16908060040180546109d390611321565b80601f01602080910402602001604051908101604052809291908181526020018280546109ff90611321565b8015610a4c5780601f10610a2157610100808354040283529160200191610a4c565b820191906000526020600020905b815481529060010190602001808311610a2f57829003601f168201915b5050505050908060050154905086565b828054610a6890611321565b90600052602060002090601f016020900481019282610a8a5760008555610ad1565b82601f10610aa357805160ff1916838001178555610ad1565b82800160010185558215610ad1579182015b82811115610ad0578251825591602001919060010190610ab5565b5b509050610ade9190610b1a565b5090565b6040518060c0016040528060008152602001600081526020016000815260200160001515815260200160608152602001600081525090565b5b80821115610b33576000816000905550600101610b1b565b5090565b6000610b4a610b45846111ed565b6111bc565b905082815260208101848484011115610b6257600080fd5b610b6d8482856112df565b509392505050565b600081359050610b84816113fd565b92915050565b600082601f830112610b9b57600080fd5b8135610bab848260208601610b37565b91505092915050565b600081359050610bc381611414565b92915050565b600060208284031215610bdb57600080fd5b6000610be984828501610b75565b91505092915050565b60008060408385031215610c0557600080fd5b6000610c1385828601610b75565b9250506020610c2485828601610bb4565b9150509250929050565b600060208284031215610c4057600080fd5b6000610c4e84828501610bb4565b91505092915050565b600080600060608486031215610c6c57600080fd5b6000610c7a86828701610bb4565b9350506020610c8b86828701610bb4565b925050604084013567ffffffffffffffff811115610ca857600080fd5b610cb486828701610b8a565b9150509250925092565b6000610cca8383610ea3565b905092915050565b610cdb81611283565b82525050565b610cf2610ced82611283565b611353565b82525050565b6000610d038261122d565b610d0d8185611250565b935083602082028501610d1f8561121d565b8060005b85811015610d5b5784840389528151610d3c8582610cbe565b9450610d4783611243565b925060208a01995050600181019050610d23565b50829750879550505050505092915050565b610d7681611295565b82525050565b610d8581611295565b82525050565b6000610d9682611238565b610da08185611261565b9350610db08185602086016112ee565b610db9816113df565b840191505092915050565b6000610dcf82611238565b610dd98185611272565b9350610de98185602086016112ee565b610df2816113df565b840191505092915050565b6000610e0a601483611272565b91507f4368616c6c616e20616c726561647920706169640000000000000000000000006000830152602082019050919050565b6000610e4a602183611272565b91507f496e73756666696369656e742066756e647320746f20706179206368616c6c6160008301527f6e000000000000000000000000000000000000000000000000000000000000006020830152604082019050919050565b600060c083016000830151610ebb6000860182610fb5565b506020830151610ece6020860182610fb5565b506040830151610ee16040860182610fb5565b506060830151610ef46060860182610d6d565b5060808301518482036080860152610f0c8282610d8b565b91505060a0830151610f2160a0860182610fb5565b508091505092915050565b600060c083016000830151610f446000860182610fb5565b506020830151610f576020860182610fb5565b506040830151610f6a6040860182610fb5565b506060830151610f7d6060860182610d6d565b5060808301518482036080860152610f958282610d8b565b91505060a0830151610faa60a0860182610fb5565b508091505092915050565b610fbe816112c1565b82525050565b610fcd816112c1565b82525050565b610fe4610fdf826112c1565b611377565b82525050565b610ff3816112cb565b82525050565b60006110058285610ce1565b6014820191506110158284610fd3565b6020820191508190509392505050565b600060208201905061103a6000830184610cd2565b92915050565b6000602082019050818103600083015261105a8184610cf8565b905092915050565b6000602082019050818103600083015261107b81610dfd565b9050919050565b6000602082019050818103600083015261109b81610e3d565b9050919050565b600060208201905081810360008301526110bc8184610f2c565b905092915050565b60006020820190506110d96000830184610fc4565b92915050565b600060c0820190506110f46000830189610fc4565b6111016020830188610fc4565b61110e6040830187610fc4565b61111b6060830186610d7c565b818103608083015261112d8185610dc4565b905061113c60a0830184610fc4565b979650505050505050565b600060a08201905061115c6000830188610fc4565b6111696020830187610fc4565b6111766040830186610fc4565b81810360608301526111888185610dc4565b90506111976080830184610fc4565b9695505050505050565b60006020820190506111b66000830184610fea565b92915050565b6000604051905081810181811067ffffffffffffffff821117156111e3576111e26113b0565b5b8060405250919050565b600067ffffffffffffffff821115611208576112076113b0565b5b601f19601f8301169050602081019050919050565b6000819050602082019050919050565b600081519050919050565b600081519050919050565b6000602082019050919050565b600082825260208201905092915050565b600082825260208201905092915050565b600082825260208201905092915050565b600061128e826112a1565b9050919050565b60008115159050919050565b600073ffffffffffffffffffffffffffffffffffffffff82169050919050565b6000819050919050565b600067ffffffffffffffff82169050919050565b82818337600083830152505050565b60005b8381101561130c5780820151818401526020810190506112f1565b8381111561131b576000848401525b50505050565b6000600282049050600182168061133957607f821691505b6020821081141561134d5761134c611381565b5b50919050565b600061135e82611365565b9050919050565b6000611370826113f0565b9050919050565b6000819050919050565b7f4e487b7100000000000000000000000000000000000000000000000000000000600052602260045260246000fd5b7f4e487b7100000000000000000000000000000000000000000000000000000000600052604160045260246000fd5b6000601f19601f8301169050919050565b60008160601b9050919050565b61140681611283565b811461141157600080fd5b50565b61141d816112c1565b811461142857600080fd5b5056fea26469706673582212206528cc82eebc0a4c87b1fe300f8ccdd5bcd69ea7667706319f425bce0ece21cd64736f6c63430008000033",
    "linkReferences": {},
    "deployedLinkReferences": {}
}