{
  "_format": "hh-sol-artifact-1",
  "contractName": "ChallanManagement",
  "sourceName": "contracts/ChallanManagement.sol",
  "abi": [
    {
      "inputs": [],
      "stateMutability": "nonpayable",
      "type": "constructor"
    },
    {
      "anonymous": false,
      "inputs": [
        {
          "indexed": true,
          "internalType": "address",
          "name": "user",
          "type": "address"
        },
        {
          "indexed": false,
          "internalType": "uint256",
          "name": "challanId",
          "type": "uint256"
        },
        {
          "indexed": false,
          "internalType": "uint256",
          "name": "vehicleId",
          "type": "uint256"
        },
        {
          "indexed": false,
          "internalType": "uint256",
          "name": "amount",
          "type": "uint256"
        },
        {
          "indexed": false,
          "internalType": "string",
          "name": "reason",
          "type": "string"
        },
        {
          "indexed": false,
          "internalType": "string",
          "name": "location",
          "type": "string"
        },
        {
          "indexed": false,
          "internalType": "uint256",
          "name": "issueDate",
          "type": "uint256"
        }
      ],
      "name": "ChallanIssued",
      "type": "event"
    },
    {
      "anonymous": false,
      "inputs": [
        {
          "indexed": true,
          "internalType": "address",
          "name": "payer",
          "type": "address"
        },
        {
          "indexed": false,
          "internalType": "uint256",
          "name": "challanId",
          "type": "uint256"
        },
        {
          "indexed": false,
          "internalType": "uint256",
          "name": "amount",
          "type": "uint256"
        }
      ],
      "name": "ChallanPaid",
      "type": "event"
    },
    {
      "inputs": [
        {
          "internalType": "address",
          "name": "",
          "type": "address"
        },
        {
          "internalType": "uint256",
          "name": "",
          "type": "uint256"
        }
      ],
      "name": "Challans",
      "outputs": [
        {
          "internalType": "uint256",
          "name": "challanId",
          "type": "uint256"
        },
        {
          "internalType": "uint256",
          "name": "vehicleId",
          "type": "uint256"
        },
        {
          "internalType": "uint256",
          "name": "amount",
          "type": "uint256"
        },
        {
          "internalType": "bool",
          "name": "paid",
          "type": "bool"
        },
        {
          "internalType": "string",
          "name": "reason",
          "type": "string"
        },
        {
          "internalType": "uint256",
          "name": "issueDate",
          "type": "uint256"
        },
        {
          "internalType": "string",
          "name": "location",
          "type": "string"
        }
      ],
      "stateMutability": "view",
      "type": "function"
    },
    {
      "inputs": [
        {
          "internalType": "uint256",
          "name": "",
          "type": "uint256"
        }
      ],
      "name": "allChallans",
      "outputs": [
        {
          "internalType": "uint256",
          "name": "challanId",
          "type": "uint256"
        },
        {
          "internalType": "uint256",
          "name": "vehicleId",
          "type": "uint256"
        },
        {
          "internalType": "uint256",
          "name": "amount",
          "type": "uint256"
        },
        {
          "internalType": "bool",
          "name": "paid",
          "type": "bool"
        },
        {
          "internalType": "string",
          "name": "reason",
          "type": "string"
        },
        {
          "internalType": "uint256",
          "name": "issueDate",
          "type": "uint256"
        },
        {
          "internalType": "string",
          "name": "location",
          "type": "string"
        }
      ],
      "stateMutability": "view",
      "type": "function"
    },
    {
      "inputs": [
        {
          "internalType": "uint256",
          "name": "_challanId",
          "type": "uint256"
        }
      ],
      "name": "getChallanDetails",
      "outputs": [
        {
          "components": [
            {
              "internalType": "uint256",
              "name": "challanId",
              "type": "uint256"
            },
            {
              "internalType": "uint256",
              "name": "vehicleId",
              "type": "uint256"
            },
            {
              "internalType": "uint256",
              "name": "amount",
              "type": "uint256"
            },
            {
              "internalType": "bool",
              "name": "paid",
              "type": "bool"
            },
            {
              "internalType": "string",
              "name": "reason",
              "type": "string"
            },
            {
              "internalType": "uint256",
              "name": "issueDate",
              "type": "uint256"
            },
            {
              "internalType": "string",
              "name": "location",
              "type": "string"
            }
          ],
          "internalType": "struct ChallanManagement.Challan",
          "name": "",
          "type": "tuple"
        }
      ],
      "stateMutability": "view",
      "type": "function"
    },
    {
      "inputs": [
        {
          "internalType": "string",
          "name": "_vehicleId",
          "type": "string"
        }
      ],
      "name": "getChallansForVehicle",
      "outputs": [
        {
          "components": [
            {
              "internalType": "uint256",
              "name": "challanId",
              "type": "uint256"
            },
            {
              "internalType": "uint256",
              "name": "vehicleId",
              "type": "uint256"
            },
            {
              "internalType": "uint256",
              "name": "amount",
              "type": "uint256"
            },
            {
              "internalType": "bool",
              "name": "paid",
              "type": "bool"
            },
            {
              "internalType": "string",
              "name": "reason",
              "type": "string"
            },
            {
              "internalType": "uint256",
              "name": "issueDate",
              "type": "uint256"
            },
            {
              "internalType": "string",
              "name": "location",
              "type": "string"
            }
          ],
          "internalType": "struct ChallanManagement.Challan[]",
          "name": "",
          "type": "tuple[]"
        }
      ],
      "stateMutability": "view",
      "type": "function"
    },
    {
      "inputs": [],
      "name": "getUserChallanCount",
      "outputs": [
        {
          "internalType": "uint64",
          "name": "",
          "type": "uint64"
        }
      ],
      "stateMutability": "view",
      "type": "function"
    },
    {
      "inputs": [
        {
          "internalType": "address",
          "name": "_userAddress",
          "type": "address"
        }
      ],
      "name": "getUserChallans",
      "outputs": [
        {
          "components": [
            {
              "internalType": "uint256",
              "name": "challanId",
              "type": "uint256"
            },
            {
              "internalType": "uint256",
              "name": "vehicleId",
              "type": "uint256"
            },
            {
              "internalType": "uint256",
              "name": "amount",
              "type": "uint256"
            },
            {
              "internalType": "bool",
              "name": "paid",
              "type": "bool"
            },
            {
              "internalType": "string",
              "name": "reason",
              "type": "string"
            },
            {
              "internalType": "uint256",
              "name": "issueDate",
              "type": "uint256"
            },
            {
              "internalType": "string",
              "name": "location",
              "type": "string"
            }
          ],
          "internalType": "struct ChallanManagement.Challan[]",
          "name": "",
          "type": "tuple[]"
        }
      ],
      "stateMutability": "view",
      "type": "function"
    },
    {
      "inputs": [
        {
          "internalType": "address",
          "name": "_userAddress",
          "type": "address"
        }
      ],
      "name": "getUserLastChallan",
      "outputs": [
        {
          "components": [
            {
              "internalType": "uint256",
              "name": "challanId",
              "type": "uint256"
            },
            {
              "internalType": "uint256",
              "name": "vehicleId",
              "type": "uint256"
            },
            {
              "internalType": "uint256",
              "name": "amount",
              "type": "uint256"
            },
            {
              "internalType": "bool",
              "name": "paid",
              "type": "bool"
            },
            {
              "internalType": "string",
              "name": "reason",
              "type": "string"
            },
            {
              "internalType": "uint256",
              "name": "issueDate",
              "type": "uint256"
            },
            {
              "internalType": "string",
              "name": "location",
              "type": "string"
            }
          ],
          "internalType": "struct ChallanManagement.Challan",
          "name": "",
          "type": "tuple"
        }
      ],
      "stateMutability": "view",
      "type": "function"
    },
    {
      "inputs": [
        {
          "internalType": "string",
          "name": "_vehicleId",
          "type": "string"
        }
      ],
      "name": "getVehicleChallanCount",
      "outputs": [
        {
          "internalType": "uint256",
          "name": "",
          "type": "uint256"
        }
      ],
      "stateMutability": "view",
      "type": "function"
    },
    {
      "inputs": [
        {
          "internalType": "string",
          "name": "_vehicleId",
          "type": "string"
        },
        {
          "internalType": "string",
          "name": "_amount",
          "type": "string"
        },
        {
          "internalType": "string",
          "name": "_reason",
          "type": "string"
        },
        {
          "internalType": "string",
          "name": "_location",
          "type": "string"
        }
      ],
      "name": "issueChallan",
      "outputs": [],
      "stateMutability": "nonpayable",
      "type": "function"
    },
    {
      "inputs": [],
      "name": "owner",
      "outputs": [
        {
          "internalType": "address",
          "name": "",
          "type": "address"
        }
      ],
      "stateMutability": "view",
      "type": "function"
    },
    {
      "inputs": [
        {
          "internalType": "string",
          "name": "input",
          "type": "string"
        }
      ],
      "name": "parseAndConvert",
      "outputs": [
        {
          "internalType": "uint256",
          "name": "",
          "type": "uint256"
        }
      ],
      "stateMutability": "pure",
      "type": "function"
    },
    {
      "inputs": [
        {
          "internalType": "uint256",
          "name": "_challanId",
          "type": "uint256"
        }
      ],
      "name": "payChallan",
      "outputs": [],
      "stateMutability": "nonpayable",
      "type": "function"
    },
    {
      "inputs": [],
      "name": "timeCall",
      "outputs": [
        {
          "internalType": "uint256",
          "name": "",
          "type": "uint256"
        }
      ],
      "stateMutability": "view",
      "type": "function"
    },
    {
      "inputs": [],
      "name": "userChallanCount",
      "outputs": [
        {
          "internalType": "uint64",
          "name": "",
          "type": "uint64"
        }
      ],
      "stateMutability": "view",
      "type": "function"
    },
    {
      "inputs": [],
      "name": "vehicleChallanCount",
      "outputs": [
        {
          "internalType": "uint64",
          "name": "",
          "type": "uint64"
        }
      ],
      "stateMutability": "view",
      "type": "function"
    }
  ],
  "bytecode": "0x608060405234801561001057600080fd5b50336000806101000a81548173ffffffffffffffffffffffffffffffffffffffff021916908373ffffffffffffffffffffffffffffffffffffffff16021790555061218a806100606000396000f3fe608060405234801561001057600080fd5b50600436106100f55760003560e01c806371d6d9ac11610097578063ae39f40011610066578063ae39f40014610288578063b12106b7146102be578063d3b56095146102ee578063fdd106691461031e576100f5565b806371d6d9ac146101ee578063828870a81461021e5780638da5cb5b1461024e578063a9ad498e1461026c576100f5565b806347cc14a6116100d357806347cc14a6146101665780635db373aa146101845780635f39ec10146101a057806366cc9e48146101d0576100f5565b80630c25b335146100fa57806321e0c115146101185780633ea73ae614610136575b600080fd5b610102610354565b60405161010f9190611cb0565b60405180910390f35b61012061035c565b60405161012d9190611de0565b60405180910390f35b610150600480360381019061014b919061176f565b610379565b60405161015d9190611cb0565b60405180910390f35b61016e61038c565b60405161017b9190611de0565b60405180910390f35b61019e600480360381019061019991906117b0565b6103a6565b005b6101ba60048036038101906101b5919061170a565b61066b565b6040516101c79190611c8e565b60405180910390f35b6101d861090d565b6040516101e59190611de0565b60405180910390f35b61020860048036038101906102039190611873565b610927565b6040516102159190611c8e565b60405180910390f35b6102386004803603810190610233919061176f565b610abb565b6040516102459190611c2c565b60405180910390f35b610256610e97565b6040516102639190611c11565b60405180910390f35b61028660048036038101906102819190611873565b610ebb565b005b6102a2600480360381019061029d9190611873565b610f9d565b6040516102b59796959493929190611cf4565b60405180910390f35b6102d860048036038101906102d3919061170a565b6110fc565b6040516102e59190611c2c565b60405180910390f35b6103086004803603810190610303919061176f565b611301565b6040516103159190611cb0565b60405180910390f35b61033860048036038101906103339190611733565b61141a565b60405161034b9796959493929190611cf4565b60405180910390f35b600043905090565b60008060149054906101000a900467ffffffffffffffff16905090565b6000806020830151905080915050919050565b600060149054906101000a900467ffffffffffffffff1681565b600033426040516020016103bb929190611be5565b6040516020818303038152906040528051906020012060001c905060006103e186610379565b905060006103ee86610379565b905060006103fa610354565b905060006040518060e001604052808681526020018581526020018481526020016000151581526020018881526020018381526020018781525090506001600060148282829054906101000a900467ffffffffffffffff1661045c9190611ec2565b92506101000a81548167ffffffffffffffff021916908367ffffffffffffffff160217905550600260003373ffffffffffffffffffffffffffffffffffffffff1673ffffffffffffffffffffffffffffffffffffffff16815260200190815260200160002081908060018154018082558091505060019003906000526020600020906007020160009091909190915060008201518160000155602082015181600101556040820151816002015560608201518160030160006101000a81548160ff0219169083151502179055506080820151816004019080519060200190610545929190611596565b5060a0820151816005015560c082015181600601908051906020019061056c929190611596565b505050806003600087815260200190815260200160002060008201518160000155602082015181600101556040820151816002015560608201518160030160006101000a81548160ff02191690831515021790555060808201518160040190805190602001906105dd929190611596565b5060a0820151816005015560c0820151816006019080519060200190610604929190611596565b509050503373ffffffffffffffffffffffffffffffffffffffff167fa86a9ab236a6edabb818e54f3a9733f2a0c3f966f466edf5a0ac6c220a8195c38686868b8b8860405161065896959493929190611d71565b60405180910390a2505050505050505050565b61067361161c565b6000600260008473ffffffffffffffffffffffffffffffffffffffff1673ffffffffffffffffffffffffffffffffffffffff168152602001908152602001600020805480602002602001604051908101604052809291908181526020016000905b8282101561086d57838290600052602060002090600702016040518060e00160405290816000820154815260200160018201548152602001600282015481526020016003820160009054906101000a900460ff1615151515815260200160048201805461074090611fd2565b80601f016020809104026020016040519081016040528092919081815260200182805461076c90611fd2565b80156107b95780601f1061078e576101008083540402835291602001916107b9565b820191906000526020600020905b81548152906001019060200180831161079c57829003601f168201915b50505050508152602001600582015481526020016006820180546107dc90611fd2565b80601f016020809104026020016040519081016040528092919081815260200182805461080890611fd2565b80156108555780601f1061082a57610100808354040283529160200191610855565b820191906000526020600020905b81548152906001019060200180831161083857829003601f168201915b505050505081525050815260200190600101906106d4565b50505050905060008151116108b7576040517f08c379a00000000000000000000000000000000000000000000000000000000081526004016108ae90611c6e565b60405180910390fd5b80600182516108c69190611f00565b815181106108fd577f4e487b7100000000000000000000000000000000000000000000000000000000600052603260045260246000fd5b6020026020010151915050919050565b600160009054906101000a900467ffffffffffffffff1681565b61092f61161c565b600360008381526020019081526020016000206040518060e00160405290816000820154815260200160018201548152602001600282015481526020016003820160009054906101000a900460ff1615151515815260200160048201805461099690611fd2565b80601f01602080910402602001604051908101604052809291908181526020018280546109c290611fd2565b8015610a0f5780601f106109e457610100808354040283529160200191610a0f565b820191906000526020600020905b8154815290600101906020018083116109f257829003601f168201915b5050505050815260200160058201548152602001600682018054610a3290611fd2565b80601f0160208091040260200160405190810160405280929190818152602001828054610a5e90611fd2565b8015610aab5780601f10610a8057610100808354040283529160200191610aab565b820191906000526020600020905b815481529060010190602001808311610a8e57829003601f168201915b5050505050815250509050919050565b60606000610ac883610379565b90506000610ad584611301565b67ffffffffffffffff811115610b14577f4e487b7100000000000000000000000000000000000000000000000000000000600052604160045260246000fd5b604051908082528060200260200182016040528015610b4d57816020015b610b3a61161c565b815260200190600190039081610b325790505b5090506000805b600260003373ffffffffffffffffffffffffffffffffffffffff1673ffffffffffffffffffffffffffffffffffffffff16815260200190815260200160002080549050811015610e8b5783600260003373ffffffffffffffffffffffffffffffffffffffff1673ffffffffffffffffffffffffffffffffffffffff1681526020019081526020016000208281548110610c16577f4e487b7100000000000000000000000000000000000000000000000000000000600052603260045260246000fd5b9060005260206000209060070201600101541415610e7857600260003373ffffffffffffffffffffffffffffffffffffffff1673ffffffffffffffffffffffffffffffffffffffff1681526020019081526020016000208181548110610ca5577f4e487b7100000000000000000000000000000000000000000000000000000000600052603260045260246000fd5b90600052602060002090600702016040518060e00160405290816000820154815260200160018201548152602001600282015481526020016003820160009054906101000a900460ff16151515158152602001600482018054610d0790611fd2565b80601f0160208091040260200160405190810160405280929190818152602001828054610d3390611fd2565b8015610d805780601f10610d5557610100808354040283529160200191610d80565b820191906000526020600020905b815481529060010190602001808311610d6357829003601f168201915b5050505050815260200160058201548152602001600682018054610da390611fd2565b80601f0160208091040260200160405190810160405280929190818152602001828054610dcf90611fd2565b8015610e1c5780601f10610df157610100808354040283529160200191610e1c565b820191906000526020600020905b815481529060010190602001808311610dff57829003601f168201915b505050505081525050838381518110610e5e577f4e487b7100000000000000000000000000000000000000000000000000000000600052603260045260246000fd5b60200260200101819052508180610e7490612004565b9250505b8080610e8390612004565b915050610b54565b50819350505050919050565b60008054906101000a900473ffffffffffffffffffffffffffffffffffffffff1681565b60006003600083815260200190815260200160002090508060030160009054906101000a900460ff1615610f24576040517f08c379a0000000000000000000000000000000000000000000000000000000008152600401610f1b90611c4e565b60405180910390fd5b60018160030160006101000a81548160ff0219169083151502179055503373ffffffffffffffffffffffffffffffffffffffff167faad0ac595c100c46f720785837e337166bcc19be9f8f60e56d55378ee35acf5782600001548360020154604051610f91929190611ccb565b60405180910390a25050565b60036020528060005260406000206000915090508060000154908060010154908060020154908060030160009054906101000a900460ff1690806004018054610fe590611fd2565b80601f016020809104026020016040519081016040528092919081815260200182805461101190611fd2565b801561105e5780601f106110335761010080835404028352916020019161105e565b820191906000526020600020905b81548152906001019060200180831161104157829003601f168201915b50505050509080600501549080600601805461107990611fd2565b80601f01602080910402602001604051908101604052809291908181526020018280546110a590611fd2565b80156110f25780601f106110c7576101008083540402835291602001916110f2565b820191906000526020600020905b8154815290600101906020018083116110d557829003601f168201915b5050505050905087565b6060600260008373ffffffffffffffffffffffffffffffffffffffff1673ffffffffffffffffffffffffffffffffffffffff168152602001908152602001600020805480602002602001604051908101604052809291908181526020016000905b828210156112f657838290600052602060002090600702016040518060e00160405290816000820154815260200160018201548152602001600282015481526020016003820160009054906101000a900460ff161515151581526020016004820180546111c990611fd2565b80601f01602080910402602001604051908101604052809291908181526020018280546111f590611fd2565b80156112425780601f1061121757610100808354040283529160200191611242565b820191906000526020600020905b81548152906001019060200180831161122557829003601f168201915b505050505081526020016005820154815260200160068201805461126590611fd2565b80601f016020809104026020016040519081016040528092919081815260200182805461129190611fd2565b80156112de5780601f106112b3576101008083540402835291602001916112de565b820191906000526020600020905b8154815290600101906020018083116112c157829003601f168201915b5050505050815250508152602001906001019061115d565b505050509050919050565b60008061130d83610379565b90506000805b600260003373ffffffffffffffffffffffffffffffffffffffff1673ffffffffffffffffffffffffffffffffffffffff1681526020019081526020016000208054905081101561140f5782600260003373ffffffffffffffffffffffffffffffffffffffff1673ffffffffffffffffffffffffffffffffffffffff16815260200190815260200160002082815481106113d5577f4e487b7100000000000000000000000000000000000000000000000000000000600052603260045260246000fd5b90600052602060002090600702016001015414156113fc5781806113f890612004565b9250505b808061140790612004565b915050611313565b508092505050919050565b6002602052816000526040600020818154811061143657600080fd5b9060005260206000209060070201600091509150508060000154908060010154908060020154908060030160009054906101000a900460ff169080600401805461147f90611fd2565b80601f01602080910402602001604051908101604052809291908181526020018280546114ab90611fd2565b80156114f85780601f106114cd576101008083540402835291602001916114f8565b820191906000526020600020905b8154815290600101906020018083116114db57829003601f168201915b50505050509080600501549080600601805461151390611fd2565b80601f016020809104026020016040519081016040528092919081815260200182805461153f90611fd2565b801561158c5780601f106115615761010080835404028352916020019161158c565b820191906000526020600020905b81548152906001019060200180831161156f57829003601f168201915b5050505050905087565b8280546115a290611fd2565b90600052602060002090601f0160209004810192826115c4576000855561160b565b82601f106115dd57805160ff191683800117855561160b565b8280016001018555821561160b579182015b8281111561160a5782518255916020019190600101906115ef565b5b509050611618919061165b565b5090565b6040518060e001604052806000815260200160008152602001600081526020016000151581526020016060815260200160008152602001606081525090565b5b8082111561167457600081600090555060010161165c565b5090565b600061168b61168684611e2c565b611dfb565b9050828152602081018484840111156116a357600080fd5b6116ae848285611f90565b509392505050565b6000813590506116c581612126565b92915050565b600082601f8301126116dc57600080fd5b81356116ec848260208601611678565b91505092915050565b6000813590506117048161213d565b92915050565b60006020828403121561171c57600080fd5b600061172a848285016116b6565b91505092915050565b6000806040838503121561174657600080fd5b6000611754858286016116b6565b9250506020611765858286016116f5565b9150509250929050565b60006020828403121561178157600080fd5b600082013567ffffffffffffffff81111561179b57600080fd5b6117a7848285016116cb565b91505092915050565b600080600080608085870312156117c657600080fd5b600085013567ffffffffffffffff8111156117e057600080fd5b6117ec878288016116cb565b945050602085013567ffffffffffffffff81111561180957600080fd5b611815878288016116cb565b935050604085013567ffffffffffffffff81111561183257600080fd5b61183e878288016116cb565b925050606085013567ffffffffffffffff81111561185b57600080fd5b611867878288016116cb565b91505092959194509250565b60006020828403121561188557600080fd5b6000611893848285016116f5565b91505092915050565b60006118a88383611a5b565b905092915050565b6118b981611f34565b82525050565b6118d06118cb82611f34565b61204d565b82525050565b60006118e182611e6c565b6118eb8185611e8f565b9350836020820285016118fd85611e5c565b8060005b85811015611939578484038952815161191a858261189c565b945061192583611e82565b925060208a01995050600181019050611901565b50829750879550505050505092915050565b61195481611f46565b82525050565b61196381611f46565b82525050565b600061197482611e77565b61197e8185611ea0565b935061198e818560208601611f9f565b61199781612108565b840191505092915050565b60006119ad82611e77565b6119b78185611eb1565b93506119c7818560208601611f9f565b6119d081612108565b840191505092915050565b60006119e8601483611eb1565b91507f4368616c6c616e20616c726561647920706169640000000000000000000000006000830152602082019050919050565b6000611a28601f83611eb1565b91507f4e6f206368616c6c616e7320666f756e6420666f7220746869732075736572006000830152602082019050919050565b600060e083016000830151611a736000860182611ba1565b506020830151611a866020860182611ba1565b506040830151611a996040860182611ba1565b506060830151611aac606086018261194b565b5060808301518482036080860152611ac48282611969565b91505060a0830151611ad960a0860182611ba1565b5060c083015184820360c0860152611af18282611969565b9150508091505092915050565b600060e083016000830151611b166000860182611ba1565b506020830151611b296020860182611ba1565b506040830151611b3c6040860182611ba1565b506060830151611b4f606086018261194b565b5060808301518482036080860152611b678282611969565b91505060a0830151611b7c60a0860182611ba1565b5060c083015184820360c0860152611b948282611969565b9150508091505092915050565b611baa81611f72565b82525050565b611bb981611f72565b82525050565b611bd0611bcb82611f72565b612071565b82525050565b611bdf81611f7c565b82525050565b6000611bf182856118bf565b601482019150611c018284611bbf565b6020820191508190509392505050565b6000602082019050611c2660008301846118b0565b92915050565b60006020820190508181036000830152611c4681846118d6565b905092915050565b60006020820190508181036000830152611c67816119db565b9050919050565b60006020820190508181036000830152611c8781611a1b565b9050919050565b60006020820190508181036000830152611ca88184611afe565b905092915050565b6000602082019050611cc56000830184611bb0565b92915050565b6000604082019050611ce06000830185611bb0565b611ced6020830184611bb0565b9392505050565b600060e082019050611d09600083018a611bb0565b611d166020830189611bb0565b611d236040830188611bb0565b611d30606083018761195a565b8181036080830152611d4281866119a2565b9050611d5160a0830185611bb0565b81810360c0830152611d6381846119a2565b905098975050505050505050565b600060c082019050611d866000830189611bb0565b611d936020830188611bb0565b611da06040830187611bb0565b8181036060830152611db281866119a2565b90508181036080830152611dc681856119a2565b9050611dd560a0830184611bb0565b979650505050505050565b6000602082019050611df56000830184611bd6565b92915050565b6000604051905081810181811067ffffffffffffffff82111715611e2257611e216120d9565b5b8060405250919050565b600067ffffffffffffffff821115611e4757611e466120d9565b5b601f19601f8301169050602081019050919050565b6000819050602082019050919050565b600081519050919050565b600081519050919050565b6000602082019050919050565b600082825260208201905092915050565b600082825260208201905092915050565b600082825260208201905092915050565b6000611ecd82611f7c565b9150611ed883611f7c565b92508267ffffffffffffffff03821115611ef557611ef461207b565b5b828201905092915050565b6000611f0b82611f72565b9150611f1683611f72565b925082821015611f2957611f2861207b565b5b828203905092915050565b6000611f3f82611f52565b9050919050565b60008115159050919050565b600073ffffffffffffffffffffffffffffffffffffffff82169050919050565b6000819050919050565b600067ffffffffffffffff82169050919050565b82818337600083830152505050565b60005b83811015611fbd578082015181840152602081019050611fa2565b83811115611fcc576000848401525b50505050565b60006002820490506001821680611fea57607f821691505b60208210811415611ffe57611ffd6120aa565b5b50919050565b600061200f82611f72565b91507fffffffffffffffffffffffffffffffffffffffffffffffffffffffffffffffff8214156120425761204161207b565b5b600182019050919050565b60006120588261205f565b9050919050565b600061206a82612119565b9050919050565b6000819050919050565b7f4e487b7100000000000000000000000000000000000000000000000000000000600052601160045260246000fd5b7f4e487b7100000000000000000000000000000000000000000000000000000000600052602260045260246000fd5b7f4e487b7100000000000000000000000000000000000000000000000000000000600052604160045260246000fd5b6000601f19601f8301169050919050565b60008160601b9050919050565b61212f81611f34565b811461213a57600080fd5b50565b61214681611f72565b811461215157600080fd5b5056fea2646970667358221220f4d6f829072f93f50a6ba92c3efa199b9dd24f15a73aca99ebc65663c051182c64736f6c63430008000033",
  "linkReferences": {},
  "deployedLinkReferences": {}
}