{
  "_format": "hh-sol-artifact-1",
  "contractName": "ChallanManagement",
  "sourceName": "contracts/ChallanManagement.sol",
  "abi": [
    {
      "inputs": [],
      "stateMutability": "nonpayable",
      "type": "constructor"
    },
    {
      "anonymous": false,
      "inputs": [
        {
          "indexed": true,
          "internalType": "address",
          "name": "user",
          "type": "address"
        },
        {
          "indexed": false,
          "internalType": "uint256",
          "name": "challanId",
          "type": "uint256"
        },
        {
          "indexed": false,
          "internalType": "uint256",
          "name": "vehicleId",
          "type": "uint256"
        },
        {
          "indexed": false,
          "internalType": "uint256",
          "name": "amount",
          "type": "uint256"
        },
        {
          "indexed": false,
          "internalType": "string",
          "name": "reason",
          "type": "string"
        },
        {
          "indexed": false,
          "internalType": "string",
          "name": "location",
          "type": "string"
        },
        {
          "indexed": false,
          "internalType": "uint256",
          "name": "issueDate",
          "type": "uint256"
        }
      ],
      "name": "ChallanIssued",
      "type": "event"
    },
    {
      "anonymous": false,
      "inputs": [
        {
          "indexed": true,
          "internalType": "address",
          "name": "payer",
          "type": "address"
        },
        {
          "indexed": false,
          "internalType": "uint256",
          "name": "challanId",
          "type": "uint256"
        },
        {
          "indexed": false,
          "internalType": "uint256",
          "name": "amount",
          "type": "uint256"
        }
      ],
      "name": "ChallanPaid",
      "type": "event"
    },
    {
      "inputs": [
        {
          "internalType": "address",
          "name": "",
          "type": "address"
        },
        {
          "internalType": "uint256",
          "name": "",
          "type": "uint256"
        }
      ],
      "name": "Challans",
      "outputs": [
        {
          "internalType": "uint256",
          "name": "challanId",
          "type": "uint256"
        },
        {
          "internalType": "uint256",
          "name": "vehicleId",
          "type": "uint256"
        },
        {
          "internalType": "uint256",
          "name": "amount",
          "type": "uint256"
        },
        {
          "internalType": "bool",
          "name": "paid",
          "type": "bool"
        },
        {
          "internalType": "string",
          "name": "reason",
          "type": "string"
        },
        {
          "internalType": "uint256",
          "name": "issueDate",
          "type": "uint256"
        },
        {
          "internalType": "string",
          "name": "location",
          "type": "string"
        }
      ],
      "stateMutability": "view",
      "type": "function"
    },
    {
      "inputs": [
        {
          "internalType": "uint256",
          "name": "",
          "type": "uint256"
        }
      ],
      "name": "allChallans",
      "outputs": [
        {
          "internalType": "uint256",
          "name": "challanId",
          "type": "uint256"
        },
        {
          "internalType": "uint256",
          "name": "vehicleId",
          "type": "uint256"
        },
        {
          "internalType": "uint256",
          "name": "amount",
          "type": "uint256"
        },
        {
          "internalType": "bool",
          "name": "paid",
          "type": "bool"
        },
        {
          "internalType": "string",
          "name": "reason",
          "type": "string"
        },
        {
          "internalType": "uint256",
          "name": "issueDate",
          "type": "uint256"
        },
        {
          "internalType": "string",
          "name": "location",
          "type": "string"
        }
      ],
      "stateMutability": "view",
      "type": "function"
    },
    {
      "inputs": [
        {
          "internalType": "uint256",
          "name": "_challanId",
          "type": "uint256"
        }
      ],
      "name": "getChallanDetails",
      "outputs": [
        {
          "components": [
            {
              "internalType": "uint256",
              "name": "challanId",
              "type": "uint256"
            },
            {
              "internalType": "uint256",
              "name": "vehicleId",
              "type": "uint256"
            },
            {
              "internalType": "uint256",
              "name": "amount",
              "type": "uint256"
            },
            {
              "internalType": "bool",
              "name": "paid",
              "type": "bool"
            },
            {
              "internalType": "string",
              "name": "reason",
              "type": "string"
            },
            {
              "internalType": "uint256",
              "name": "issueDate",
              "type": "uint256"
            },
            {
              "internalType": "string",
              "name": "location",
              "type": "string"
            }
          ],
          "internalType": "struct ChallanManagement.Challan",
          "name": "",
          "type": "tuple"
        }
      ],
      "stateMutability": "view",
      "type": "function"
    },
    {
      "inputs": [
        {
          "internalType": "string",
          "name": "_vehicleId",
          "type": "string"
        }
      ],
      "name": "getChallansForVehicle",
      "outputs": [
        {
          "components": [
            {
              "internalType": "uint256",
              "name": "challanId",
              "type": "uint256"
            },
            {
              "internalType": "uint256",
              "name": "vehicleId",
              "type": "uint256"
            },
            {
              "internalType": "uint256",
              "name": "amount",
              "type": "uint256"
            },
            {
              "internalType": "bool",
              "name": "paid",
              "type": "bool"
            },
            {
              "internalType": "string",
              "name": "reason",
              "type": "string"
            },
            {
              "internalType": "uint256",
              "name": "issueDate",
              "type": "uint256"
            },
            {
              "internalType": "string",
              "name": "location",
              "type": "string"
            }
          ],
          "internalType": "struct ChallanManagement.Challan[]",
          "name": "",
          "type": "tuple[]"
        }
      ],
      "stateMutability": "view",
      "type": "function"
    },
    {
      "inputs": [],
      "name": "getUserChallanCount",
      "outputs": [
        {
          "internalType": "uint64",
          "name": "",
          "type": "uint64"
        }
      ],
      "stateMutability": "view",
      "type": "function"
    },
    {
      "inputs": [
        {
          "internalType": "address",
          "name": "_userAddress",
          "type": "address"
        }
      ],
      "name": "getUserChallans",
      "outputs": [
        {
          "components": [
            {
              "internalType": "uint256",
              "name": "challanId",
              "type": "uint256"
            },
            {
              "internalType": "uint256",
              "name": "vehicleId",
              "type": "uint256"
            },
            {
              "internalType": "uint256",
              "name": "amount",
              "type": "uint256"
            },
            {
              "internalType": "bool",
              "name": "paid",
              "type": "bool"
            },
            {
              "internalType": "string",
              "name": "reason",
              "type": "string"
            },
            {
              "internalType": "uint256",
              "name": "issueDate",
              "type": "uint256"
            },
            {
              "internalType": "string",
              "name": "location",
              "type": "string"
            }
          ],
          "internalType": "struct ChallanManagement.Challan[]",
          "name": "",
          "type": "tuple[]"
        }
      ],
      "stateMutability": "view",
      "type": "function"
    },
    {
      "inputs": [
        {
          "internalType": "string",
          "name": "_vehicleId",
          "type": "string"
        }
      ],
      "name": "getVehicleChallanCount",
      "outputs": [
        {
          "internalType": "uint256",
          "name": "",
          "type": "uint256"
        }
      ],
      "stateMutability": "view",
      "type": "function"
    },
    {
      "inputs": [
        {
          "internalType": "string",
          "name": "_vehicleId",
          "type": "string"
        },
        {
          "internalType": "string",
          "name": "_amount",
          "type": "string"
        },
        {
          "internalType": "string",
          "name": "_reason",
          "type": "string"
        },
        {
          "internalType": "string",
          "name": "_location",
          "type": "string"
        }
      ],
      "name": "issueChallan",
      "outputs": [],
      "stateMutability": "nonpayable",
      "type": "function"
    },
    {
      "inputs": [],
      "name": "owner",
      "outputs": [
        {
          "internalType": "address",
          "name": "",
          "type": "address"
        }
      ],
      "stateMutability": "view",
      "type": "function"
    },
    {
      "inputs": [
        {
          "internalType": "string",
          "name": "input",
          "type": "string"
        }
      ],
      "name": "parseAndConvert",
      "outputs": [
        {
          "internalType": "uint256",
          "name": "",
          "type": "uint256"
        }
      ],
      "stateMutability": "pure",
      "type": "function"
    },
    {
      "inputs": [
        {
          "internalType": "uint256",
          "name": "_challanId",
          "type": "uint256"
        }
      ],
      "name": "payChallan",
      "outputs": [],
      "stateMutability": "nonpayable",
      "type": "function"
    },
    {
      "inputs": [],
      "name": "timeCall",
      "outputs": [
        {
          "internalType": "uint256",
          "name": "",
          "type": "uint256"
        }
      ],
      "stateMutability": "view",
      "type": "function"
    },
    {
      "inputs": [],
      "name": "userChallanCount",
      "outputs": [
        {
          "internalType": "uint64",
          "name": "",
          "type": "uint64"
        }
      ],
      "stateMutability": "view",
      "type": "function"
    },
    {
      "inputs": [],
      "name": "vehicleChallanCount",
      "outputs": [
        {
          "internalType": "uint64",
          "name": "",
          "type": "uint64"
        }
      ],
      "stateMutability": "view",
      "type": "function"
    }
  ],
  "bytecode": "0x608060405234801561001057600080fd5b50336000806101000a81548173ffffffffffffffffffffffffffffffffffffffff021916908373ffffffffffffffffffffffffffffffffffffffff160217905550611e19806100606000396000f3fe608060405234801561001057600080fd5b50600436106100ea5760003560e01c8063828870a81161008c578063ae39f40011610066578063ae39f4001461024d578063b12106b714610283578063d3b56095146102b3578063fdd10669146102e3576100ea565b8063828870a8146101e35780638da5cb5b14610213578063a9ad498e14610231576100ea565b806347cc14a6116100c857806347cc14a61461015b5780635db373aa1461017957806366cc9e481461019557806371d6d9ac146101b3576100ea565b80630c25b335146100ef57806321e0c1151461010d5780633ea73ae61461012b575b600080fd5b6100f7610319565b6040516101049190611973565b60405180910390f35b610115610321565b6040516101229190611aa3565b60405180910390f35b61014560048036038101906101409190611492565b61033e565b6040516101529190611973565b60405180910390f35b610163610351565b6040516101709190611aa3565b60405180910390f35b610193600480360381019061018e91906114d3565b61036b565b005b61019d610630565b6040516101aa9190611aa3565b60405180910390f35b6101cd60048036038101906101c89190611596565b61064a565b6040516101da9190611951565b60405180910390f35b6101fd60048036038101906101f89190611492565b6107de565b60405161020a919061190f565b60405180910390f35b61021b610bba565b60405161022891906118f4565b60405180910390f35b61024b60048036038101906102469190611596565b610bde565b005b61026760048036038101906102629190611596565b610cc0565b60405161027a97969594939291906119b7565b60405180910390f35b61029d6004803603810190610298919061142d565b610e1f565b6040516102aa919061190f565b60405180910390f35b6102cd60048036038101906102c89190611492565b611024565b6040516102da9190611973565b60405180910390f35b6102fd60048036038101906102f89190611456565b61113d565b60405161031097969594939291906119b7565b60405180910390f35b600043905090565b60008060149054906101000a900467ffffffffffffffff16905090565b6000806020830151905080915050919050565b600060149054906101000a900467ffffffffffffffff1681565b600033426040516020016103809291906118c8565b6040516020818303038152906040528051906020012060001c905060006103a68661033e565b905060006103b38661033e565b905060006103bf610319565b905060006040518060e001604052808681526020018581526020018481526020016000151581526020018881526020018381526020018781525090506001600060148282829054906101000a900467ffffffffffffffff166104219190611b85565b92506101000a81548167ffffffffffffffff021916908367ffffffffffffffff160217905550600260003373ffffffffffffffffffffffffffffffffffffffff1673ffffffffffffffffffffffffffffffffffffffff16815260200190815260200160002081908060018154018082558091505060019003906000526020600020906007020160009091909190915060008201518160000155602082015181600101556040820151816002015560608201518160030160006101000a81548160ff021916908315150217905550608082015181600401908051906020019061050a9291906112b9565b5060a0820151816005015560c08201518160060190805190602001906105319291906112b9565b505050806003600087815260200190815260200160002060008201518160000155602082015181600101556040820151816002015560608201518160030160006101000a81548160ff02191690831515021790555060808201518160040190805190602001906105a29291906112b9565b5060a0820151816005015560c08201518160060190805190602001906105c99291906112b9565b509050503373ffffffffffffffffffffffffffffffffffffffff167fa86a9ab236a6edabb818e54f3a9733f2a0c3f966f466edf5a0ac6c220a8195c38686868b8b8860405161061d96959493929190611a34565b60405180910390a2505050505050505050565b600160009054906101000a900467ffffffffffffffff1681565b61065261133f565b600360008381526020019081526020016000206040518060e00160405290816000820154815260200160018201548152602001600282015481526020016003820160009054906101000a900460ff161515151581526020016004820180546106b990611c61565b80601f01602080910402602001604051908101604052809291908181526020018280546106e590611c61565b80156107325780601f1061070757610100808354040283529160200191610732565b820191906000526020600020905b81548152906001019060200180831161071557829003601f168201915b505050505081526020016005820154815260200160068201805461075590611c61565b80601f016020809104026020016040519081016040528092919081815260200182805461078190611c61565b80156107ce5780601f106107a3576101008083540402835291602001916107ce565b820191906000526020600020905b8154815290600101906020018083116107b157829003601f168201915b5050505050815250509050919050565b606060006107eb8361033e565b905060006107f884611024565b67ffffffffffffffff811115610837577f4e487b7100000000000000000000000000000000000000000000000000000000600052604160045260246000fd5b60405190808252806020026020018201604052801561087057816020015b61085d61133f565b8152602001906001900390816108555790505b5090506000805b600260003373ffffffffffffffffffffffffffffffffffffffff1673ffffffffffffffffffffffffffffffffffffffff16815260200190815260200160002080549050811015610bae5783600260003373ffffffffffffffffffffffffffffffffffffffff1673ffffffffffffffffffffffffffffffffffffffff1681526020019081526020016000208281548110610939577f4e487b7100000000000000000000000000000000000000000000000000000000600052603260045260246000fd5b9060005260206000209060070201600101541415610b9b57600260003373ffffffffffffffffffffffffffffffffffffffff1673ffffffffffffffffffffffffffffffffffffffff16815260200190815260200160002081815481106109c8577f4e487b7100000000000000000000000000000000000000000000000000000000600052603260045260246000fd5b90600052602060002090600702016040518060e00160405290816000820154815260200160018201548152602001600282015481526020016003820160009054906101000a900460ff16151515158152602001600482018054610a2a90611c61565b80601f0160208091040260200160405190810160405280929190818152602001828054610a5690611c61565b8015610aa35780601f10610a7857610100808354040283529160200191610aa3565b820191906000526020600020905b815481529060010190602001808311610a8657829003601f168201915b5050505050815260200160058201548152602001600682018054610ac690611c61565b80601f0160208091040260200160405190810160405280929190818152602001828054610af290611c61565b8015610b3f5780601f10610b1457610100808354040283529160200191610b3f565b820191906000526020600020905b815481529060010190602001808311610b2257829003601f168201915b505050505081525050838381518110610b81577f4e487b7100000000000000000000000000000000000000000000000000000000600052603260045260246000fd5b60200260200101819052508180610b9790611c93565b9250505b8080610ba690611c93565b915050610877565b50819350505050919050565b60008054906101000a900473ffffffffffffffffffffffffffffffffffffffff1681565b60006003600083815260200190815260200160002090508060030160009054906101000a900460ff1615610c47576040517f08c379a0000000000000000000000000000000000000000000000000000000008152600401610c3e90611931565b60405180910390fd5b60018160030160006101000a81548160ff0219169083151502179055503373ffffffffffffffffffffffffffffffffffffffff167faad0ac595c100c46f720785837e337166bcc19be9f8f60e56d55378ee35acf5782600001548360020154604051610cb492919061198e565b60405180910390a25050565b60036020528060005260406000206000915090508060000154908060010154908060020154908060030160009054906101000a900460ff1690806004018054610d0890611c61565b80601f0160208091040260200160405190810160405280929190818152602001828054610d3490611c61565b8015610d815780601f10610d5657610100808354040283529160200191610d81565b820191906000526020600020905b815481529060010190602001808311610d6457829003601f168201915b505050505090806005015490806006018054610d9c90611c61565b80601f0160208091040260200160405190810160405280929190818152602001828054610dc890611c61565b8015610e155780601f10610dea57610100808354040283529160200191610e15565b820191906000526020600020905b815481529060010190602001808311610df857829003601f168201915b5050505050905087565b6060600260008373ffffffffffffffffffffffffffffffffffffffff1673ffffffffffffffffffffffffffffffffffffffff168152602001908152602001600020805480602002602001604051908101604052809291908181526020016000905b8282101561101957838290600052602060002090600702016040518060e00160405290816000820154815260200160018201548152602001600282015481526020016003820160009054906101000a900460ff16151515158152602001600482018054610eec90611c61565b80601f0160208091040260200160405190810160405280929190818152602001828054610f1890611c61565b8015610f655780601f10610f3a57610100808354040283529160200191610f65565b820191906000526020600020905b815481529060010190602001808311610f4857829003601f168201915b5050505050815260200160058201548152602001600682018054610f8890611c61565b80601f0160208091040260200160405190810160405280929190818152602001828054610fb490611c61565b80156110015780601f10610fd657610100808354040283529160200191611001565b820191906000526020600020905b815481529060010190602001808311610fe457829003601f168201915b50505050508152505081526020019060010190610e80565b505050509050919050565b6000806110308361033e565b90506000805b600260003373ffffffffffffffffffffffffffffffffffffffff1673ffffffffffffffffffffffffffffffffffffffff168152602001908152602001600020805490508110156111325782600260003373ffffffffffffffffffffffffffffffffffffffff1673ffffffffffffffffffffffffffffffffffffffff16815260200190815260200160002082815481106110f8577f4e487b7100000000000000000000000000000000000000000000000000000000600052603260045260246000fd5b906000526020600020906007020160010154141561111f57818061111b90611c93565b9250505b808061112a90611c93565b915050611036565b508092505050919050565b6002602052816000526040600020818154811061115957600080fd5b9060005260206000209060070201600091509150508060000154908060010154908060020154908060030160009054906101000a900460ff16908060040180546111a290611c61565b80601f01602080910402602001604051908101604052809291908181526020018280546111ce90611c61565b801561121b5780601f106111f05761010080835404028352916020019161121b565b820191906000526020600020905b8154815290600101906020018083116111fe57829003601f168201915b50505050509080600501549080600601805461123690611c61565b80601f016020809104026020016040519081016040528092919081815260200182805461126290611c61565b80156112af5780601f10611284576101008083540402835291602001916112af565b820191906000526020600020905b81548152906001019060200180831161129257829003601f168201915b5050505050905087565b8280546112c590611c61565b90600052602060002090601f0160209004810192826112e7576000855561132e565b82601f1061130057805160ff191683800117855561132e565b8280016001018555821561132e579182015b8281111561132d578251825591602001919060010190611312565b5b50905061133b919061137e565b5090565b6040518060e001604052806000815260200160008152602001600081526020016000151581526020016060815260200160008152602001606081525090565b5b8082111561139757600081600090555060010161137f565b5090565b60006113ae6113a984611aef565b611abe565b9050828152602081018484840111156113c657600080fd5b6113d1848285611c1f565b509392505050565b6000813590506113e881611db5565b92915050565b600082601f8301126113ff57600080fd5b813561140f84826020860161139b565b91505092915050565b60008135905061142781611dcc565b92915050565b60006020828403121561143f57600080fd5b600061144d848285016113d9565b91505092915050565b6000806040838503121561146957600080fd5b6000611477858286016113d9565b925050602061148885828601611418565b9150509250929050565b6000602082840312156114a457600080fd5b600082013567ffffffffffffffff8111156114be57600080fd5b6114ca848285016113ee565b91505092915050565b600080600080608085870312156114e957600080fd5b600085013567ffffffffffffffff81111561150357600080fd5b61150f878288016113ee565b945050602085013567ffffffffffffffff81111561152c57600080fd5b611538878288016113ee565b935050604085013567ffffffffffffffff81111561155557600080fd5b611561878288016113ee565b925050606085013567ffffffffffffffff81111561157e57600080fd5b61158a878288016113ee565b91505092959194509250565b6000602082840312156115a857600080fd5b60006115b684828501611418565b91505092915050565b60006115cb838361173e565b905092915050565b6115dc81611bc3565b82525050565b6115f36115ee82611bc3565b611cdc565b82525050565b600061160482611b2f565b61160e8185611b52565b93508360208202850161162085611b1f565b8060005b8581101561165c578484038952815161163d85826115bf565b945061164883611b45565b925060208a01995050600181019050611624565b50829750879550505050505092915050565b61167781611bd5565b82525050565b61168681611bd5565b82525050565b600061169782611b3a565b6116a18185611b63565b93506116b1818560208601611c2e565b6116ba81611d97565b840191505092915050565b60006116d082611b3a565b6116da8185611b74565b93506116ea818560208601611c2e565b6116f381611d97565b840191505092915050565b600061170b601483611b74565b91507f4368616c6c616e20616c726561647920706169640000000000000000000000006000830152602082019050919050565b600060e0830160008301516117566000860182611884565b5060208301516117696020860182611884565b50604083015161177c6040860182611884565b50606083015161178f606086018261166e565b50608083015184820360808601526117a7828261168c565b91505060a08301516117bc60a0860182611884565b5060c083015184820360c08601526117d4828261168c565b9150508091505092915050565b600060e0830160008301516117f96000860182611884565b50602083015161180c6020860182611884565b50604083015161181f6040860182611884565b506060830151611832606086018261166e565b506080830151848203608086015261184a828261168c565b91505060a083015161185f60a0860182611884565b5060c083015184820360c0860152611877828261168c565b9150508091505092915050565b61188d81611c01565b82525050565b61189c81611c01565b82525050565b6118b36118ae82611c01565b611d00565b82525050565b6118c281611c0b565b82525050565b60006118d482856115e2565b6014820191506118e482846118a2565b6020820191508190509392505050565b600060208201905061190960008301846115d3565b92915050565b6000602082019050818103600083015261192981846115f9565b905092915050565b6000602082019050818103600083015261194a816116fe565b9050919050565b6000602082019050818103600083015261196b81846117e1565b905092915050565b60006020820190506119886000830184611893565b92915050565b60006040820190506119a36000830185611893565b6119b06020830184611893565b9392505050565b600060e0820190506119cc600083018a611893565b6119d96020830189611893565b6119e66040830188611893565b6119f3606083018761167d565b8181036080830152611a0581866116c5565b9050611a1460a0830185611893565b81810360c0830152611a2681846116c5565b905098975050505050505050565b600060c082019050611a496000830189611893565b611a566020830188611893565b611a636040830187611893565b8181036060830152611a7581866116c5565b90508181036080830152611a8981856116c5565b9050611a9860a0830184611893565b979650505050505050565b6000602082019050611ab860008301846118b9565b92915050565b6000604051905081810181811067ffffffffffffffff82111715611ae557611ae4611d68565b5b8060405250919050565b600067ffffffffffffffff821115611b0a57611b09611d68565b5b601f19601f8301169050602081019050919050565b6000819050602082019050919050565b600081519050919050565b600081519050919050565b6000602082019050919050565b600082825260208201905092915050565b600082825260208201905092915050565b600082825260208201905092915050565b6000611b9082611c0b565b9150611b9b83611c0b565b92508267ffffffffffffffff03821115611bb857611bb7611d0a565b5b828201905092915050565b6000611bce82611be1565b9050919050565b60008115159050919050565b600073ffffffffffffffffffffffffffffffffffffffff82169050919050565b6000819050919050565b600067ffffffffffffffff82169050919050565b82818337600083830152505050565b60005b83811015611c4c578082015181840152602081019050611c31565b83811115611c5b576000848401525b50505050565b60006002820490506001821680611c7957607f821691505b60208210811415611c8d57611c8c611d39565b5b50919050565b6000611c9e82611c01565b91507fffffffffffffffffffffffffffffffffffffffffffffffffffffffffffffffff821415611cd157611cd0611d0a565b5b600182019050919050565b6000611ce782611cee565b9050919050565b6000611cf982611da8565b9050919050565b6000819050919050565b7f4e487b7100000000000000000000000000000000000000000000000000000000600052601160045260246000fd5b7f4e487b7100000000000000000000000000000000000000000000000000000000600052602260045260246000fd5b7f4e487b7100000000000000000000000000000000000000000000000000000000600052604160045260246000fd5b6000601f19601f8301169050919050565b60008160601b9050919050565b611dbe81611bc3565b8114611dc957600080fd5b50565b611dd581611c01565b8114611de057600080fd5b5056fea2646970667358221220278b24ec3e36d241d3dc9adc7713fd4d2655e4138150509fafac7ce4bd5a051f64736f6c63430008000033",
  "linkReferences": {},
  "deployedLinkReferences": {}
}