{
  "_format": "hh-sol-artifact-1",
  "contractName": "LandRegistery",
  "sourceName": "contracts/LandRegistery.sol",
  "abi": [
    {
      "inputs": [],
      "stateMutability": "nonpayable",
      "type": "constructor"
    },
    {
      "anonymous": false,
      "inputs": [
        {
          "indexed": true,
          "internalType": "uint256",
          "name": "landId",
          "type": "uint256"
        },
        {
          "indexed": true,
          "internalType": "address",
          "name": "owner",
          "type": "address"
        },
        {
          "indexed": false,
          "internalType": "string",
          "name": "location",
          "type": "string"
        },
        {
          "indexed": false,
          "internalType": "string",
          "name": "area",
          "type": "string"
        },
        {
          "indexed": false,
          "internalType": "string",
          "name": "dimensionOfLand",
          "type": "string"
        },
        {
          "indexed": false,
          "internalType": "string",
          "name": "landIdentificationNumber",
          "type": "string"
        },
        {
          "indexed": false,
          "internalType": "enum LandRegistery.LandType",
          "name": "landType",
          "type": "uint8"
        }
      ],
      "name": "LandRegistered",
      "type": "event"
    },
    {
      "anonymous": false,
      "inputs": [
        {
          "indexed": true,
          "internalType": "uint256",
          "name": "landId",
          "type": "uint256"
        },
        {
          "indexed": true,
          "internalType": "address",
          "name": "from",
          "type": "address"
        },
        {
          "indexed": true,
          "internalType": "address",
          "name": "to",
          "type": "address"
        },
        {
          "indexed": false,
          "internalType": "string",
          "name": "transferAmount",
          "type": "string"
        }
      ],
      "name": "LandTransferred",
      "type": "event"
    },
    {
      "inputs": [
        {
          "internalType": "uint256",
          "name": "",
          "type": "uint256"
        }
      ],
      "name": "allLands",
      "outputs": [
        {
          "internalType": "uint256",
          "name": "landId",
          "type": "uint256"
        },
        {
          "internalType": "address",
          "name": "prevOwner",
          "type": "address"
        },
        {
          "internalType": "address",
          "name": "currentOwner",
          "type": "address"
        },
        {
          "internalType": "string",
          "name": "location",
          "type": "string"
        },
        {
          "internalType": "string",
          "name": "area",
          "type": "string"
        },
        {
          "internalType": "string",
          "name": "dimensionOfLand",
          "type": "string"
        },
        {
          "internalType": "string",
          "name": "landIdentificationNumber",
          "type": "string"
        },
        {
          "internalType": "enum LandRegistery.LandStatus",
          "name": "status",
          "type": "uint8"
        },
        {
          "internalType": "enum LandRegistery.LandType",
          "name": "landType",
          "type": "uint8"
        },
        {
          "internalType": "string",
          "name": "transferAmount",
          "type": "string"
        }
      ],
      "stateMutability": "view",
      "type": "function"
    },
    {
      "inputs": [
        {
          "internalType": "uint256",
          "name": "_landId",
          "type": "uint256"
        }
      ],
      "name": "getLandDetails",
      "outputs": [
        {
          "components": [
            {
              "internalType": "uint256",
              "name": "landId",
              "type": "uint256"
            },
            {
              "internalType": "address",
              "name": "prevOwner",
              "type": "address"
            },
            {
              "internalType": "address",
              "name": "currentOwner",
              "type": "address"
            },
            {
              "internalType": "string",
              "name": "location",
              "type": "string"
            },
            {
              "internalType": "string",
              "name": "area",
              "type": "string"
            },
            {
              "internalType": "string",
              "name": "dimensionOfLand",
              "type": "string"
            },
            {
              "internalType": "string",
              "name": "landIdentificationNumber",
              "type": "string"
            },
            {
              "internalType": "enum LandRegistery.LandStatus",
              "name": "status",
              "type": "uint8"
            },
            {
              "internalType": "enum LandRegistery.LandType",
              "name": "landType",
              "type": "uint8"
            },
            {
              "internalType": "string",
              "name": "transferAmount",
              "type": "string"
            }
          ],
          "internalType": "struct LandRegistery.Land",
          "name": "",
          "type": "tuple"
        }
      ],
      "stateMutability": "view",
      "type": "function"
    },
    {
      "inputs": [
        {
          "internalType": "address",
          "name": "_userAddress",
          "type": "address"
        }
      ],
      "name": "getUserLands",
      "outputs": [
        {
          "components": [
            {
              "internalType": "uint256",
              "name": "landId",
              "type": "uint256"
            },
            {
              "internalType": "address",
              "name": "prevOwner",
              "type": "address"
            },
            {
              "internalType": "address",
              "name": "currentOwner",
              "type": "address"
            },
            {
              "internalType": "string",
              "name": "location",
              "type": "string"
            },
            {
              "internalType": "string",
              "name": "area",
              "type": "string"
            },
            {
              "internalType": "string",
              "name": "dimensionOfLand",
              "type": "string"
            },
            {
              "internalType": "string",
              "name": "landIdentificationNumber",
              "type": "string"
            },
            {
              "internalType": "enum LandRegistery.LandStatus",
              "name": "status",
              "type": "uint8"
            },
            {
              "internalType": "enum LandRegistery.LandType",
              "name": "landType",
              "type": "uint8"
            },
            {
              "internalType": "string",
              "name": "transferAmount",
              "type": "string"
            }
          ],
          "internalType": "struct LandRegistery.Land[]",
          "name": "",
          "type": "tuple[]"
        }
      ],
      "stateMutability": "view",
      "type": "function"
    },
    {
      "inputs": [],
      "name": "owner",
      "outputs": [
        {
          "internalType": "address",
          "name": "",
          "type": "address"
        }
      ],
      "stateMutability": "view",
      "type": "function"
    },
    {
      "inputs": [
        {
          "internalType": "string",
          "name": "input",
          "type": "string"
        }
      ],
      "name": "parseAndConvert",
      "outputs": [
        {
          "internalType": "uint256",
          "name": "",
          "type": "uint256"
        }
      ],
      "stateMutability": "pure",
      "type": "function"
    },
    {
      "inputs": [
        {
          "internalType": "string",
          "name": "_location",
          "type": "string"
        },
        {
          "internalType": "string",
          "name": "_area",
          "type": "string"
        },
        {
          "internalType": "string",
          "name": "_dimensionOfLand",
          "type": "string"
        },
        {
          "internalType": "string",
          "name": "_landIdentificationNumber",
          "type": "string"
        },
        {
          "internalType": "enum LandRegistery.LandType",
          "name": "_landType",
          "type": "uint8"
        }
      ],
      "name": "registerLand",
      "outputs": [],
      "stateMutability": "nonpayable",
      "type": "function"
    },
    {
      "inputs": [
        {
          "internalType": "string",
          "name": "_landIdentificationNumber",
          "type": "string"
        },
        {
          "internalType": "address",
          "name": "_newOwner",
          "type": "address"
        },
        {
          "internalType": "string",
          "name": "_transferAmount",
          "type": "string"
        }
      ],
      "name": "transferLand",
      "outputs": [],
      "stateMutability": "nonpayable",
      "type": "function"
    },
    {
      "inputs": [
        {
          "internalType": "address",
          "name": "",
          "type": "address"
        },
        {
          "internalType": "uint256",
          "name": "",
          "type": "uint256"
        }
      ],
      "name": "userLands",
      "outputs": [
        {
          "internalType": "uint256",
          "name": "landId",
          "type": "uint256"
        },
        {
          "internalType": "address",
          "name": "prevOwner",
          "type": "address"
        },
        {
          "internalType": "address",
          "name": "currentOwner",
          "type": "address"
        },
        {
          "internalType": "string",
          "name": "location",
          "type": "string"
        },
        {
          "internalType": "string",
          "name": "area",
          "type": "string"
        },
        {
          "internalType": "string",
          "name": "dimensionOfLand",
          "type": "string"
        },
        {
          "internalType": "string",
          "name": "landIdentificationNumber",
          "type": "string"
        },
        {
          "internalType": "enum LandRegistery.LandStatus",
          "name": "status",
          "type": "uint8"
        },
        {
          "internalType": "enum LandRegistery.LandType",
          "name": "landType",
          "type": "uint8"
        },
        {
          "internalType": "string",
          "name": "transferAmount",
          "type": "string"
        }
      ],
      "stateMutability": "view",
      "type": "function"
    }
  ],
  "bytecode": "0x6080604052600060015534801561001557600080fd5b50336000806101000a81548173ffffffffffffffffffffffffffffffffffffffff021916908373ffffffffffffffffffffffffffffffffffffffff160217905550612f28806100656000396000f3fe608060405234801561001057600080fd5b50600436106100885760003560e01c80636623771e1161005b5780636623771e146101425780638da5cb5b1461015e578063dc219adc1461017c578063fe0cb7dc146101b557610088565b806322ff7c521461008d57806328bf5ef5146100a95780633ea73ae6146100d957806341697be014610109575b600080fd5b6100a760048036038101906100a29190612427565b6101e5565b005b6100c360048036038101906100be9190612381565b6109e0565b6040516100d091906129c6565b60405180910390f35b6100f360048036038101906100ee91906123e6565b610f1d565b6040516101009190612adb565b60405180910390f35b610123600480360381019061011e919061257d565b610f30565b6040516101399a99989796959493929190612af6565b60405180910390f35b61015c600480360381019061015791906124a6565b611286565b005b610166611858565b60405161017391906129ab565b60405180910390f35b610196600480360381019061019191906123aa565b61187c565b6040516101ac9a99989796959493929190612af6565b60405180910390f35b6101cf60048036038101906101ca919061257d565b611bef565b6040516101dc9190612ab9565b60405180910390f35b600073ffffffffffffffffffffffffffffffffffffffff168273ffffffffffffffffffffffffffffffffffffffff161415610255576040517f08c379a000000000000000000000000000000000000000000000000000000000815260040161024c90612a79565b60405180910390fd5b600061026084610f1d565b905060006003600083815260200190815260200160002090503373ffffffffffffffffffffffffffffffffffffffff168160020160009054906101000a900473ffffffffffffffffffffffffffffffffffffffff1673ffffffffffffffffffffffffffffffffffffffff161461030b576040517f08c379a000000000000000000000000000000000000000000000000000000000815260040161030290612a99565b60405180910390fd5b8060020160009054906101000a900473ffffffffffffffffffffffffffffffffffffffff168160010160006101000a81548173ffffffffffffffffffffffffffffffffffffffff021916908373ffffffffffffffffffffffffffffffffffffffff160217905550838160020160006101000a81548173ffffffffffffffffffffffffffffffffffffffff021916908373ffffffffffffffffffffffffffffffffffffffff16021790555060028160070160006101000a81548160ff02191690836002811115610403577f4e487b7100000000000000000000000000000000000000000000000000000000600052602160045260246000fd5b0217905550828160080190805190602001906104209291906120bb565b50600260003373ffffffffffffffffffffffffffffffffffffffff1673ffffffffffffffffffffffffffffffffffffffff168152602001908152602001600020819080600181540180825580915050600190039060005260206000209060090201600090919091909150600082015481600001556001820160009054906101000a900473ffffffffffffffffffffffffffffffffffffffff168160010160006101000a81548173ffffffffffffffffffffffffffffffffffffffff021916908373ffffffffffffffffffffffffffffffffffffffff1602179055506002820160009054906101000a900473ffffffffffffffffffffffffffffffffffffffff168160020160006101000a81548173ffffffffffffffffffffffffffffffffffffffff021916908373ffffffffffffffffffffffffffffffffffffffff160217905550600382018160030190805461057690612d44565b610581929190612141565b50600482018160040190805461059690612d44565b6105a1929190612141565b5060058201816005019080546105b690612d44565b6105c1929190612141565b5060068201816006019080546105d690612d44565b6105e1929190612141565b506007820160009054906101000a900460ff168160070160006101000a81548160ff02191690836002811115610640577f4e487b7100000000000000000000000000000000000000000000000000000000600052602160045260246000fd5b02179055506007820160019054906101000a900460ff168160070160016101000a81548160ff021916908360048111156106a3577f4e487b7100000000000000000000000000000000000000000000000000000000600052602160045260246000fd5b021790555060088201816008019080546106bc90612d44565b6106c7929190612141565b505050600260008573ffffffffffffffffffffffffffffffffffffffff1673ffffffffffffffffffffffffffffffffffffffff168152602001908152602001600020819080600181540180825580915050600190039060005260206000209060090201600090919091909150600082015481600001556001820160009054906101000a900473ffffffffffffffffffffffffffffffffffffffff168160010160006101000a81548173ffffffffffffffffffffffffffffffffffffffff021916908373ffffffffffffffffffffffffffffffffffffffff1602179055506002820160009054906101000a900473ffffffffffffffffffffffffffffffffffffffff168160020160006101000a81548173ffffffffffffffffffffffffffffffffffffffff021916908373ffffffffffffffffffffffffffffffffffffffff160217905550600382018160030190805461081f90612d44565b61082a929190612141565b50600482018160040190805461083f90612d44565b61084a929190612141565b50600582018160050190805461085f90612d44565b61086a929190612141565b50600682018160060190805461087f90612d44565b61088a929190612141565b506007820160009054906101000a900460ff168160070160006101000a81548160ff021916908360028111156108e9577f4e487b7100000000000000000000000000000000000000000000000000000000600052602160045260246000fd5b02179055506007820160019054906101000a900460ff168160070160016101000a81548160ff0219169083600481111561094c577f4e487b7100000000000000000000000000000000000000000000000000000000600052602160045260246000fd5b0217905550600882018160080190805461096590612d44565b610970929190612141565b5050508373ffffffffffffffffffffffffffffffffffffffff163373ffffffffffffffffffffffffffffffffffffffff16837fc4047e06cead7bf10729ec5fd49ab0b51199099f985bd6bdbe3520655246381c866040516109d191906129e8565b60405180910390a45050505050565b6060600260008373ffffffffffffffffffffffffffffffffffffffff1673ffffffffffffffffffffffffffffffffffffffff168152602001908152602001600020805480602002602001604051908101604052809291908181526020016000905b82821015610f12578382906000526020600020906009020160405180610140016040529081600082015481526020016001820160009054906101000a900473ffffffffffffffffffffffffffffffffffffffff1673ffffffffffffffffffffffffffffffffffffffff1673ffffffffffffffffffffffffffffffffffffffff1681526020016002820160009054906101000a900473ffffffffffffffffffffffffffffffffffffffff1673ffffffffffffffffffffffffffffffffffffffff1673ffffffffffffffffffffffffffffffffffffffff168152602001600382018054610b2b90612d44565b80601f0160208091040260200160405190810160405280929190818152602001828054610b5790612d44565b8015610ba45780601f10610b7957610100808354040283529160200191610ba4565b820191906000526020600020905b815481529060010190602001808311610b8757829003601f168201915b50505050508152602001600482018054610bbd90612d44565b80601f0160208091040260200160405190810160405280929190818152602001828054610be990612d44565b8015610c365780601f10610c0b57610100808354040283529160200191610c36565b820191906000526020600020905b815481529060010190602001808311610c1957829003601f168201915b50505050508152602001600582018054610c4f90612d44565b80601f0160208091040260200160405190810160405280929190818152602001828054610c7b90612d44565b8015610cc85780601f10610c9d57610100808354040283529160200191610cc8565b820191906000526020600020905b815481529060010190602001808311610cab57829003601f168201915b50505050508152602001600682018054610ce190612d44565b80601f0160208091040260200160405190810160405280929190818152602001828054610d0d90612d44565b8015610d5a5780601f10610d2f57610100808354040283529160200191610d5a565b820191906000526020600020905b815481529060010190602001808311610d3d57829003601f168201915b505050505081526020016007820160009054906101000a900460ff166002811115610dae577f4e487b7100000000000000000000000000000000000000000000000000000000600052602160045260246000fd5b6002811115610de6577f4e487b7100000000000000000000000000000000000000000000000000000000600052602160045260246000fd5b81526020016007820160019054906101000a900460ff166004811115610e35577f4e487b7100000000000000000000000000000000000000000000000000000000600052602160045260246000fd5b6004811115610e6d577f4e487b7100000000000000000000000000000000000000000000000000000000600052602160045260246000fd5b8152602001600882018054610e8190612d44565b80601f0160208091040260200160405190810160405280929190818152602001828054610ead90612d44565b8015610efa5780601f10610ecf57610100808354040283529160200191610efa565b820191906000526020600020905b815481529060010190602001808311610edd57829003601f168201915b50505050508152505081526020019060010190610a41565b505050509050919050565b6000806020830151905080915050919050565b60036020528060005260406000206000915090508060000154908060010160009054906101000a900473ffffffffffffffffffffffffffffffffffffffff16908060020160009054906101000a900473ffffffffffffffffffffffffffffffffffffffff1690806003018054610fa590612d44565b80601f0160208091040260200160405190810160405280929190818152602001828054610fd190612d44565b801561101e5780601f10610ff35761010080835404028352916020019161101e565b820191906000526020600020905b81548152906001019060200180831161100157829003601f168201915b50505050509080600401805461103390612d44565b80601f016020809104026020016040519081016040528092919081815260200182805461105f90612d44565b80156110ac5780601f10611081576101008083540402835291602001916110ac565b820191906000526020600020905b81548152906001019060200180831161108f57829003601f168201915b5050505050908060050180546110c190612d44565b80601f01602080910402602001604051908101604052809291908181526020018280546110ed90612d44565b801561113a5780601f1061110f5761010080835404028352916020019161113a565b820191906000526020600020905b81548152906001019060200180831161111d57829003601f168201915b50505050509080600601805461114f90612d44565b80601f016020809104026020016040519081016040528092919081815260200182805461117b90612d44565b80156111c85780601f1061119d576101008083540402835291602001916111c8565b820191906000526020600020905b8154815290600101906020018083116111ab57829003601f168201915b5050505050908060070160009054906101000a900460ff16908060070160019054906101000a900460ff169080600801805461120390612d44565b80601f016020809104026020016040519081016040528092919081815260200182805461122f90612d44565b801561127c5780601f106112515761010080835404028352916020019161127c565b820191906000526020600020905b81548152906001019060200180831161125f57829003601f168201915b505050505090508a565b6001600081548092919061129990612d76565b919050555060006112a983610f1d565b90506000604051806101400160405280838152602001600073ffffffffffffffffffffffffffffffffffffffff1681526020013373ffffffffffffffffffffffffffffffffffffffff1681526020018881526020018781526020018681526020018581526020016001600281111561134a577f4e487b7100000000000000000000000000000000000000000000000000000000600052602160045260246000fd5b8152602001846004811115611388577f4e487b7100000000000000000000000000000000000000000000000000000000600052602160045260246000fd5b81526020016040518060400160405280600181526020017f30000000000000000000000000000000000000000000000000000000000000008152508152509050600260003373ffffffffffffffffffffffffffffffffffffffff1673ffffffffffffffffffffffffffffffffffffffff1681526020019081526020016000208190806001815401808255809150506001900390600052602060002090600902016000909190919091506000820151816000015560208201518160010160006101000a81548173ffffffffffffffffffffffffffffffffffffffff021916908373ffffffffffffffffffffffffffffffffffffffff16021790555060408201518160020160006101000a81548173ffffffffffffffffffffffffffffffffffffffff021916908373ffffffffffffffffffffffffffffffffffffffff16021790555060608201518160030190805190602001906114e59291906120bb565b5060808201518160040190805190602001906115029291906120bb565b5060a082015181600501908051906020019061151f9291906120bb565b5060c082015181600601908051906020019061153c9291906120bb565b5060e08201518160070160006101000a81548160ff0219169083600281111561158e577f4e487b7100000000000000000000000000000000000000000000000000000000600052602160045260246000fd5b02179055506101008201518160070160016101000a81548160ff021916908360048111156115e5577f4e487b7100000000000000000000000000000000000000000000000000000000600052602160045260246000fd5b02179055506101208201518160080190805190602001906116079291906120bb565b50505080600360008481526020019081526020016000206000820151816000015560208201518160010160006101000a81548173ffffffffffffffffffffffffffffffffffffffff021916908373ffffffffffffffffffffffffffffffffffffffff16021790555060408201518160020160006101000a81548173ffffffffffffffffffffffffffffffffffffffff021916908373ffffffffffffffffffffffffffffffffffffffff16021790555060608201518160030190805190602001906116d29291906120bb565b5060808201518160040190805190602001906116ef9291906120bb565b5060a082015181600501908051906020019061170c9291906120bb565b5060c08201518160060190805190602001906117299291906120bb565b5060e08201518160070160006101000a81548160ff0219169083600281111561177b577f4e487b7100000000000000000000000000000000000000000000000000000000600052602160045260246000fd5b02179055506101008201518160070160016101000a81548160ff021916908360048111156117d2577f4e487b7100000000000000000000000000000000000000000000000000000000600052602160045260246000fd5b02179055506101208201518160080190805190602001906117f49291906120bb565b509050503373ffffffffffffffffffffffffffffffffffffffff16827f8d7e4a9f5fdf9ee8f3bf08a1972ccf962a75a81c44fa618aa7f7882b5a14552f8989898989604051611847959493929190612a0a565b60405180910390a350505050505050565b60008054906101000a900473ffffffffffffffffffffffffffffffffffffffff1681565b6002602052816000526040600020818154811061189857600080fd5b9060005260206000209060090201600091509150508060000154908060010160009054906101000a900473ffffffffffffffffffffffffffffffffffffffff16908060020160009054906101000a900473ffffffffffffffffffffffffffffffffffffffff169080600301805461190e90612d44565b80601f016020809104026020016040519081016040528092919081815260200182805461193a90612d44565b80156119875780601f1061195c57610100808354040283529160200191611987565b820191906000526020600020905b81548152906001019060200180831161196a57829003601f168201915b50505050509080600401805461199c90612d44565b80601f01602080910402602001604051908101604052809291908181526020018280546119c890612d44565b8015611a155780601f106119ea57610100808354040283529160200191611a15565b820191906000526020600020905b8154815290600101906020018083116119f857829003601f168201915b505050505090806005018054611a2a90612d44565b80601f0160208091040260200160405190810160405280929190818152602001828054611a5690612d44565b8015611aa35780601f10611a7857610100808354040283529160200191611aa3565b820191906000526020600020905b815481529060010190602001808311611a8657829003601f168201915b505050505090806006018054611ab890612d44565b80601f0160208091040260200160405190810160405280929190818152602001828054611ae490612d44565b8015611b315780601f10611b0657610100808354040283529160200191611b31565b820191906000526020600020905b815481529060010190602001808311611b1457829003601f168201915b5050505050908060070160009054906101000a900460ff16908060070160019054906101000a900460ff1690806008018054611b6c90612d44565b80601f0160208091040260200160405190810160405280929190818152602001828054611b9890612d44565b8015611be55780601f10611bba57610100808354040283529160200191611be5565b820191906000526020600020905b815481529060010190602001808311611bc857829003601f168201915b505050505090508a565b611bf76121ce565b6003600083815260200190815260200160002060405180610140016040529081600082015481526020016001820160009054906101000a900473ffffffffffffffffffffffffffffffffffffffff1673ffffffffffffffffffffffffffffffffffffffff1673ffffffffffffffffffffffffffffffffffffffff1681526020016002820160009054906101000a900473ffffffffffffffffffffffffffffffffffffffff1673ffffffffffffffffffffffffffffffffffffffff1673ffffffffffffffffffffffffffffffffffffffff168152602001600382018054611cdc90612d44565b80601f0160208091040260200160405190810160405280929190818152602001828054611d0890612d44565b8015611d555780601f10611d2a57610100808354040283529160200191611d55565b820191906000526020600020905b815481529060010190602001808311611d3857829003601f168201915b50505050508152602001600482018054611d6e90612d44565b80601f0160208091040260200160405190810160405280929190818152602001828054611d9a90612d44565b8015611de75780601f10611dbc57610100808354040283529160200191611de7565b820191906000526020600020905b815481529060010190602001808311611dca57829003601f168201915b50505050508152602001600582018054611e0090612d44565b80601f0160208091040260200160405190810160405280929190818152602001828054611e2c90612d44565b8015611e795780601f10611e4e57610100808354040283529160200191611e79565b820191906000526020600020905b815481529060010190602001808311611e5c57829003601f168201915b50505050508152602001600682018054611e9290612d44565b80601f0160208091040260200160405190810160405280929190818152602001828054611ebe90612d44565b8015611f0b5780601f10611ee057610100808354040283529160200191611f0b565b820191906000526020600020905b815481529060010190602001808311611eee57829003601f168201915b505050505081526020016007820160009054906101000a900460ff166002811115611f5f577f4e487b7100000000000000000000000000000000000000000000000000000000600052602160045260246000fd5b6002811115611f97577f4e487b7100000000000000000000000000000000000000000000000000000000600052602160045260246000fd5b81526020016007820160019054906101000a900460ff166004811115611fe6577f4e487b7100000000000000000000000000000000000000000000000000000000600052602160045260246000fd5b600481111561201e577f4e487b7100000000000000000000000000000000000000000000000000000000600052602160045260246000fd5b815260200160088201805461203290612d44565b80601f016020809104026020016040519081016040528092919081815260200182805461205e90612d44565b80156120ab5780601f10612080576101008083540402835291602001916120ab565b820191906000526020600020905b81548152906001019060200180831161208e57829003601f168201915b5050505050815250509050919050565b8280546120c790612d44565b90600052602060002090601f0160209004810192826120e95760008555612130565b82601f1061210257805160ff1916838001178555612130565b82800160010185558215612130579182015b8281111561212f578251825591602001919060010190612114565b5b50905061213d91906122bd565b5090565b82805461214d90612d44565b90600052602060002090601f01602090048101928261216f57600085556121bd565b82601f1061218057805485556121bd565b828001600101855582156121bd57600052602060002091601f016020900482015b828111156121bc5782548255916001019190600101906121a1565b5b5090506121ca91906122bd565b5090565b60405180610140016040528060008152602001600073ffffffffffffffffffffffffffffffffffffffff168152602001600073ffffffffffffffffffffffffffffffffffffffff1681526020016060815260200160608152602001606081526020016060815260200160006002811115612271577f4e487b7100000000000000000000000000000000000000000000000000000000600052602160045260246000fd5b8152602001600060048111156122b0577f4e487b7100000000000000000000000000000000000000000000000000000000600052602160045260246000fd5b8152602001606081525090565b5b808211156122d65760008160009055506001016122be565b5090565b60006122ed6122e884612be6565b612bb5565b90508281526020810184848401111561230557600080fd5b612310848285612d02565b509392505050565b60008135905061232781612eb4565b92915050565b60008135905061233c81612ecb565b92915050565b600082601f83011261235357600080fd5b81356123638482602086016122da565b91505092915050565b60008135905061237b81612edb565b92915050565b60006020828403121561239357600080fd5b60006123a184828501612318565b91505092915050565b600080604083850312156123bd57600080fd5b60006123cb85828601612318565b92505060206123dc8582860161236c565b9150509250929050565b6000602082840312156123f857600080fd5b600082013567ffffffffffffffff81111561241257600080fd5b61241e84828501612342565b91505092915050565b60008060006060848603121561243c57600080fd5b600084013567ffffffffffffffff81111561245657600080fd5b61246286828701612342565b935050602061247386828701612318565b925050604084013567ffffffffffffffff81111561249057600080fd5b61249c86828701612342565b9150509250925092565b600080600080600060a086880312156124be57600080fd5b600086013567ffffffffffffffff8111156124d857600080fd5b6124e488828901612342565b955050602086013567ffffffffffffffff81111561250157600080fd5b61250d88828901612342565b945050604086013567ffffffffffffffff81111561252a57600080fd5b61253688828901612342565b935050606086013567ffffffffffffffff81111561255357600080fd5b61255f88828901612342565b92505060806125708882890161232d565b9150509295509295909350565b60006020828403121561258f57600080fd5b600061259d8482850161236c565b91505092915050565b60006125b283836127a1565b905092915050565b6125c381612c7c565b82525050565b6125d281612c7c565b82525050565b60006125e382612c26565b6125ed8185612c49565b9350836020820285016125ff85612c16565b8060005b8581101561263b578484038952815161261c85826125a6565b945061262783612c3c565b925060208a01995050600181019050612603565b50829750879550505050505092915050565b61265681612cde565b82525050565b61266581612cde565b82525050565b61267481612cf0565b82525050565b61268381612cf0565b82525050565b600061269482612c31565b61269e8185612c5a565b93506126ae818560208601612d11565b6126b781612e7b565b840191505092915050565b60006126cd82612c31565b6126d78185612c6b565b93506126e7818560208601612d11565b6126f081612e7b565b840191505092915050565b6000612708601983612c6b565b91507f496e76616c6964206e6577206f776e65722061646472657373000000000000006000830152602082019050919050565b6000612748602c83612c6b565b91507f4f6e6c79207468652063757272656e74206f776e65722063616e207472616e7360008301527f66657220746865206c616e6400000000000000000000000000000000000000006020830152604082019050919050565b6000610140830160008301516127ba600086018261298d565b5060208301516127cd60208601826125ba565b5060408301516127e060408601826125ba565b50606083015184820360608601526127f88282612689565b915050608083015184820360808601526128128282612689565b91505060a083015184820360a086015261282c8282612689565b91505060c083015184820360c08601526128468282612689565b91505060e083015161285b60e086018261264d565b5061010083015161287061010086018261266b565b5061012083015184820361012086015261288a8282612689565b9150508091505092915050565b6000610140830160008301516128b0600086018261298d565b5060208301516128c360208601826125ba565b5060408301516128d660408601826125ba565b50606083015184820360608601526128ee8282612689565b915050608083015184820360808601526129088282612689565b91505060a083015184820360a08601526129228282612689565b91505060c083015184820360c086015261293c8282612689565b91505060e083015161295160e086018261264d565b5061010083015161296661010086018261266b565b506101208301518482036101208601526129808282612689565b9150508091505092915050565b61299681612cd4565b82525050565b6129a581612cd4565b82525050565b60006020820190506129c060008301846125c9565b92915050565b600060208201905081810360008301526129e081846125d8565b905092915050565b60006020820190508181036000830152612a0281846126c2565b905092915050565b600060a0820190508181036000830152612a2481886126c2565b90508181036020830152612a3881876126c2565b90508181036040830152612a4c81866126c2565b90508181036060830152612a6081856126c2565b9050612a6f608083018461267a565b9695505050505050565b60006020820190508181036000830152612a92816126fb565b9050919050565b60006020820190508181036000830152612ab28161273b565b9050919050565b60006020820190508181036000830152612ad38184612897565b905092915050565b6000602082019050612af0600083018461299c565b92915050565b600061014082019050612b0c600083018d61299c565b612b19602083018c6125c9565b612b26604083018b6125c9565b8181036060830152612b38818a6126c2565b90508181036080830152612b4c81896126c2565b905081810360a0830152612b6081886126c2565b905081810360c0830152612b7481876126c2565b9050612b8360e083018661265c565b612b9161010083018561267a565b818103610120830152612ba481846126c2565b90509b9a5050505050505050505050565b6000604051905081810181811067ffffffffffffffff82111715612bdc57612bdb612e4c565b5b8060405250919050565b600067ffffffffffffffff821115612c0157612c00612e4c565b5b601f19601f8301169050602081019050919050565b6000819050602082019050919050565b600081519050919050565b600081519050919050565b6000602082019050919050565b600082825260208201905092915050565b600082825260208201905092915050565b600082825260208201905092915050565b6000612c8782612cb4565b9050919050565b6000819050612c9c82612e8c565b919050565b6000819050612caf82612ea0565b919050565b600073ffffffffffffffffffffffffffffffffffffffff82169050919050565b6000819050919050565b6000612ce982612c8e565b9050919050565b6000612cfb82612ca1565b9050919050565b82818337600083830152505050565b60005b83811015612d2f578082015181840152602081019050612d14565b83811115612d3e576000848401525b50505050565b60006002820490506001821680612d5c57607f821691505b60208210811415612d7057612d6f612e1d565b5b50919050565b6000612d8182612cd4565b91507fffffffffffffffffffffffffffffffffffffffffffffffffffffffffffffffff821415612db457612db3612dbf565b5b600182019050919050565b7f4e487b7100000000000000000000000000000000000000000000000000000000600052601160045260246000fd5b7f4e487b7100000000000000000000000000000000000000000000000000000000600052602160045260246000fd5b7f4e487b7100000000000000000000000000000000000000000000000000000000600052602260045260246000fd5b7f4e487b7100000000000000000000000000000000000000000000000000000000600052604160045260246000fd5b6000601f19601f8301169050919050565b60038110612e9d57612e9c612dee565b5b50565b60058110612eb157612eb0612dee565b5b50565b612ebd81612c7c565b8114612ec857600080fd5b50565b60058110612ed857600080fd5b50565b612ee481612cd4565b8114612eef57600080fd5b5056fea2646970667358221220dccf77930522ab7b23e6e176ba620063d8721426e4a9490cc756ed786656e70f64736f6c63430008000033",
  "linkReferences": {},
  "deployedLinkReferences": {}
}