{
  "_format": "hh-sol-artifact-1",
  "contractName": "LandRegistery",
  "sourceName": "contracts/LandRegistery.sol",
  "abi": [
    {
      "inputs": [],
      "stateMutability": "nonpayable",
      "type": "constructor"
    },
    {
      "anonymous": false,
      "inputs": [
        {
          "indexed": true,
          "internalType": "uint256",
          "name": "landId",
          "type": "uint256"
        },
        {
          "indexed": true,
          "internalType": "address",
          "name": "owner",
          "type": "address"
        },
        {
          "indexed": false,
          "internalType": "string",
          "name": "location",
          "type": "string"
        },
        {
          "indexed": false,
          "internalType": "string",
          "name": "area",
          "type": "string"
        },
        {
          "indexed": false,
          "internalType": "string",
          "name": "dimensionOfLand",
          "type": "string"
        },
        {
          "indexed": false,
          "internalType": "string",
          "name": "landIdentificationNumber",
          "type": "string"
        },
        {
          "indexed": false,
          "internalType": "enum LandRegistery.LandType",
          "name": "landType",
          "type": "uint8"
        }
      ],
      "name": "LandRegistered",
      "type": "event"
    },
    {
      "anonymous": false,
      "inputs": [
        {
          "indexed": true,
          "internalType": "uint256",
          "name": "landId",
          "type": "uint256"
        },
        {
          "indexed": true,
          "internalType": "address",
          "name": "from",
          "type": "address"
        },
        {
          "indexed": true,
          "internalType": "address",
          "name": "to",
          "type": "address"
        },
        {
          "indexed": false,
          "internalType": "uint256",
          "name": "transferAmount",
          "type": "uint256"
        }
      ],
      "name": "LandTransferRequested",
      "type": "event"
    },
    {
      "anonymous": false,
      "inputs": [
        {
          "indexed": true,
          "internalType": "uint256",
          "name": "landId",
          "type": "uint256"
        },
        {
          "indexed": true,
          "internalType": "address",
          "name": "from",
          "type": "address"
        },
        {
          "indexed": true,
          "internalType": "address",
          "name": "to",
          "type": "address"
        },
        {
          "indexed": false,
          "internalType": "uint256",
          "name": "transferAmount",
          "type": "uint256"
        }
      ],
      "name": "LandTransferred",
      "type": "event"
    },
    {
      "inputs": [
        {
          "internalType": "uint256",
          "name": "",
          "type": "uint256"
        }
      ],
      "name": "allLands",
      "outputs": [
        {
          "internalType": "uint256",
          "name": "landId",
          "type": "uint256"
        },
        {
          "internalType": "address",
          "name": "currentOwner",
          "type": "address"
        },
        {
          "internalType": "string",
          "name": "location",
          "type": "string"
        },
        {
          "internalType": "string",
          "name": "area",
          "type": "string"
        },
        {
          "internalType": "string",
          "name": "dimensionOfLand",
          "type": "string"
        },
        {
          "internalType": "string",
          "name": "landIdentificationNumber",
          "type": "string"
        },
        {
          "internalType": "enum LandRegistery.LandStatus",
          "name": "status",
          "type": "uint8"
        },
        {
          "internalType": "enum LandRegistery.LandType",
          "name": "landType",
          "type": "uint8"
        },
        {
          "internalType": "uint256",
          "name": "transferAmount",
          "type": "uint256"
        }
      ],
      "stateMutability": "view",
      "type": "function"
    },
    {
      "inputs": [
        {
          "internalType": "uint256",
          "name": "_landId",
          "type": "uint256"
        }
      ],
      "name": "getLandDetails",
      "outputs": [
        {
          "components": [
            {
              "internalType": "uint256",
              "name": "landId",
              "type": "uint256"
            },
            {
              "internalType": "address",
              "name": "currentOwner",
              "type": "address"
            },
            {
              "internalType": "string",
              "name": "location",
              "type": "string"
            },
            {
              "internalType": "string",
              "name": "area",
              "type": "string"
            },
            {
              "internalType": "string",
              "name": "dimensionOfLand",
              "type": "string"
            },
            {
              "internalType": "string",
              "name": "landIdentificationNumber",
              "type": "string"
            },
            {
              "internalType": "enum LandRegistery.LandStatus",
              "name": "status",
              "type": "uint8"
            },
            {
              "internalType": "enum LandRegistery.LandType",
              "name": "landType",
              "type": "uint8"
            },
            {
              "internalType": "uint256",
              "name": "transferAmount",
              "type": "uint256"
            }
          ],
          "internalType": "struct LandRegistery.Land",
          "name": "",
          "type": "tuple"
        }
      ],
      "stateMutability": "view",
      "type": "function"
    },
    {
      "inputs": [
        {
          "internalType": "address",
          "name": "_userAddress",
          "type": "address"
        }
      ],
      "name": "getUserLands",
      "outputs": [
        {
          "components": [
            {
              "internalType": "uint256",
              "name": "landId",
              "type": "uint256"
            },
            {
              "internalType": "address",
              "name": "currentOwner",
              "type": "address"
            },
            {
              "internalType": "string",
              "name": "location",
              "type": "string"
            },
            {
              "internalType": "string",
              "name": "area",
              "type": "string"
            },
            {
              "internalType": "string",
              "name": "dimensionOfLand",
              "type": "string"
            },
            {
              "internalType": "string",
              "name": "landIdentificationNumber",
              "type": "string"
            },
            {
              "internalType": "enum LandRegistery.LandStatus",
              "name": "status",
              "type": "uint8"
            },
            {
              "internalType": "enum LandRegistery.LandType",
              "name": "landType",
              "type": "uint8"
            },
            {
              "internalType": "uint256",
              "name": "transferAmount",
              "type": "uint256"
            }
          ],
          "internalType": "struct LandRegistery.Land[]",
          "name": "",
          "type": "tuple[]"
        }
      ],
      "stateMutability": "view",
      "type": "function"
    },
    {
      "inputs": [],
      "name": "landCount",
      "outputs": [
        {
          "internalType": "uint256",
          "name": "",
          "type": "uint256"
        }
      ],
      "stateMutability": "view",
      "type": "function"
    },
    {
      "inputs": [],
      "name": "owner",
      "outputs": [
        {
          "internalType": "address",
          "name": "",
          "type": "address"
        }
      ],
      "stateMutability": "view",
      "type": "function"
    },
    {
      "inputs": [
        {
          "internalType": "string",
          "name": "_location",
          "type": "string"
        },
        {
          "internalType": "string",
          "name": "_area",
          "type": "string"
        },
        {
          "internalType": "string",
          "name": "_dimensionOfLand",
          "type": "string"
        },
        {
          "internalType": "string",
          "name": "_landIdentificationNumber",
          "type": "string"
        },
        {
          "internalType": "enum LandRegistery.LandType",
          "name": "_landType",
          "type": "uint8"
        },
        {
          "internalType": "uint256",
          "name": "_transferAmount",
          "type": "uint256"
        }
      ],
      "name": "registerLand",
      "outputs": [],
      "stateMutability": "nonpayable",
      "type": "function"
    },
    {
      "inputs": [
        {
          "internalType": "uint256",
          "name": "_landId",
          "type": "uint256"
        },
        {
          "internalType": "address",
          "name": "_newOwner",
          "type": "address"
        }
      ],
      "name": "requestLandTransfer",
      "outputs": [],
      "stateMutability": "payable",
      "type": "function"
    },
    {
      "inputs": [
        {
          "internalType": "uint256",
          "name": "_landId",
          "type": "uint256"
        },
        {
          "internalType": "uint256",
          "name": "_transferAmount",
          "type": "uint256"
        }
      ],
      "name": "setTransferAmount",
      "outputs": [],
      "stateMutability": "nonpayable",
      "type": "function"
    },
    {
      "inputs": [
        {
          "internalType": "address",
          "name": "",
          "type": "address"
        },
        {
          "internalType": "uint256",
          "name": "",
          "type": "uint256"
        }
      ],
      "name": "userLands",
      "outputs": [
        {
          "internalType": "uint256",
          "name": "landId",
          "type": "uint256"
        },
        {
          "internalType": "address",
          "name": "currentOwner",
          "type": "address"
        },
        {
          "internalType": "string",
          "name": "location",
          "type": "string"
        },
        {
          "internalType": "string",
          "name": "area",
          "type": "string"
        },
        {
          "internalType": "string",
          "name": "dimensionOfLand",
          "type": "string"
        },
        {
          "internalType": "string",
          "name": "landIdentificationNumber",
          "type": "string"
        },
        {
          "internalType": "enum LandRegistery.LandStatus",
          "name": "status",
          "type": "uint8"
        },
        {
          "internalType": "enum LandRegistery.LandType",
          "name": "landType",
          "type": "uint8"
        },
        {
          "internalType": "uint256",
          "name": "transferAmount",
          "type": "uint256"
        }
      ],
      "stateMutability": "view",
      "type": "function"
    }
  ],
  "bytecode": "0x6080604052600060015534801561001557600080fd5b50336000806101000a81548173ffffffffffffffffffffffffffffffffffffffff021916908373ffffffffffffffffffffffffffffffffffffffff160217905550612ed5806100656000396000f3fe6080604052600436106100865760003560e01c806381d52b411161005957806381d52b41146101525780638da5cb5b1461017b578063d7bce658146101a6578063dc219adc146101d1578063fe0cb7dc1461021657610086565b8063289148e71461008b57806328bf5ef5146100b457806341697be0146100f157806359d5163c14610136575b600080fd5b34801561009757600080fd5b506100b260048036038101906100ad919061236b565b610253565b005b3480156100c057600080fd5b506100db60048036038101906100d69190612306565b610718565b6040516100e89190612937565b60405180910390f35b3480156100fd57600080fd5b5061011860048036038101906101139190612454565b610b77565b60405161012d99989796959493929190612a85565b60405180910390f35b610150600480360381019061014b919061247d565b610e1f565b005b34801561015e57600080fd5b50610179600480360381019061017491906124b9565b61104a565b005b34801561018757600080fd5b50610190611157565b60405161019d919061291c565b60405180910390f35b3480156101b257600080fd5b506101bb61117b565b6040516101c89190612a6a565b60405180910390f35b3480156101dd57600080fd5b506101f860048036038101906101f3919061232f565b611181565b60405161020d99989796959493929190612a85565b60405180910390f35b34801561022257600080fd5b5061023d60048036038101906102389190612454565b611446565b60405161024a9190612a48565b60405180910390f35b6001600081548092919061026690612d23565b91905055506000600154905060006040518061012001604052808381526020013373ffffffffffffffffffffffffffffffffffffffff168152602001898152602001888152602001878152602001868152602001600160028111156102f4577f4e487b7100000000000000000000000000000000000000000000000000000000600052602160045260246000fd5b8152602001856004811115610332577f4e487b7100000000000000000000000000000000000000000000000000000000600052602160045260246000fd5b8152602001848152509050600260003373ffffffffffffffffffffffffffffffffffffffff1673ffffffffffffffffffffffffffffffffffffffff1681526020019081526020016000208190806001815401808255809150506001900390600052602060002090600802016000909190919091506000820151816000015560208201518160010160006101000a81548173ffffffffffffffffffffffffffffffffffffffff021916908373ffffffffffffffffffffffffffffffffffffffff160217905550604082015181600201908051906020019061041392919061201d565b50606082015181600301908051906020019061043092919061201d565b50608082015181600401908051906020019061044d92919061201d565b5060a082015181600501908051906020019061046a92919061201d565b5060c08201518160060160006101000a81548160ff021916908360028111156104bc577f4e487b7100000000000000000000000000000000000000000000000000000000600052602160045260246000fd5b021790555060e08201518160060160016101000a81548160ff02191690836004811115610512577f4e487b7100000000000000000000000000000000000000000000000000000000600052602160045260246000fd5b02179055506101008201518160070155505080600360008481526020019081526020016000206000820151816000015560208201518160010160006101000a81548173ffffffffffffffffffffffffffffffffffffffff021916908373ffffffffffffffffffffffffffffffffffffffff16021790555060408201518160020190805190602001906105a592919061201d565b5060608201518160030190805190602001906105c292919061201d565b5060808201518160040190805190602001906105df92919061201d565b5060a08201518160050190805190602001906105fc92919061201d565b5060c08201518160060160006101000a81548160ff0219169083600281111561064e577f4e487b7100000000000000000000000000000000000000000000000000000000600052602160045260246000fd5b021790555060e08201518160060160016101000a81548160ff021916908360048111156106a4577f4e487b7100000000000000000000000000000000000000000000000000000000600052602160045260246000fd5b021790555061010082015181600701559050503373ffffffffffffffffffffffffffffffffffffffff16827f8d7e4a9f5fdf9ee8f3bf08a1972ccf962a75a81c44fa618aa7f7882b5a14552f8a8a8a8a8a604051610706959493929190612959565b60405180910390a35050505050505050565b6060600260008373ffffffffffffffffffffffffffffffffffffffff1673ffffffffffffffffffffffffffffffffffffffff168152602001908152602001600020805480602002602001604051908101604052809291908181526020016000905b82821015610b6c578382906000526020600020906008020160405180610120016040529081600082015481526020016001820160009054906101000a900473ffffffffffffffffffffffffffffffffffffffff1673ffffffffffffffffffffffffffffffffffffffff1673ffffffffffffffffffffffffffffffffffffffff16815260200160028201805461080d90612cf1565b80601f016020809104026020016040519081016040528092919081815260200182805461083990612cf1565b80156108865780601f1061085b57610100808354040283529160200191610886565b820191906000526020600020905b81548152906001019060200180831161086957829003601f168201915b5050505050815260200160038201805461089f90612cf1565b80601f01602080910402602001604051908101604052809291908181526020018280546108cb90612cf1565b80156109185780601f106108ed57610100808354040283529160200191610918565b820191906000526020600020905b8154815290600101906020018083116108fb57829003601f168201915b5050505050815260200160048201805461093190612cf1565b80601f016020809104026020016040519081016040528092919081815260200182805461095d90612cf1565b80156109aa5780601f1061097f576101008083540402835291602001916109aa565b820191906000526020600020905b81548152906001019060200180831161098d57829003601f168201915b505050505081526020016005820180546109c390612cf1565b80601f01602080910402602001604051908101604052809291908181526020018280546109ef90612cf1565b8015610a3c5780601f10610a1157610100808354040283529160200191610a3c565b820191906000526020600020905b815481529060010190602001808311610a1f57829003601f168201915b505050505081526020016006820160009054906101000a900460ff166002811115610a90577f4e487b7100000000000000000000000000000000000000000000000000000000600052602160045260246000fd5b6002811115610ac8577f4e487b7100000000000000000000000000000000000000000000000000000000600052602160045260246000fd5b81526020016006820160019054906101000a900460ff166004811115610b17577f4e487b7100000000000000000000000000000000000000000000000000000000600052602160045260246000fd5b6004811115610b4f577f4e487b7100000000000000000000000000000000000000000000000000000000600052602160045260246000fd5b815260200160078201548152505081526020019060010190610779565b505050509050919050565b60036020528060005260406000206000915090508060000154908060010160009054906101000a900473ffffffffffffffffffffffffffffffffffffffff1690806002018054610bc690612cf1565b80601f0160208091040260200160405190810160405280929190818152602001828054610bf290612cf1565b8015610c3f5780601f10610c1457610100808354040283529160200191610c3f565b820191906000526020600020905b815481529060010190602001808311610c2257829003601f168201915b505050505090806003018054610c5490612cf1565b80601f0160208091040260200160405190810160405280929190818152602001828054610c8090612cf1565b8015610ccd5780601f10610ca257610100808354040283529160200191610ccd565b820191906000526020600020905b815481529060010190602001808311610cb057829003601f168201915b505050505090806004018054610ce290612cf1565b80601f0160208091040260200160405190810160405280929190818152602001828054610d0e90612cf1565b8015610d5b5780601f10610d3057610100808354040283529160200191610d5b565b820191906000526020600020905b815481529060010190602001808311610d3e57829003601f168201915b505050505090806005018054610d7090612cf1565b80601f0160208091040260200160405190810160405280929190818152602001828054610d9c90612cf1565b8015610de95780601f10610dbe57610100808354040283529160200191610de9565b820191906000526020600020905b815481529060010190602001808311610dcc57829003601f168201915b5050505050908060060160009054906101000a900460ff16908060060160019054906101000a900460ff16908060070154905089565b8180600360008381526020019081526020016000206000015414610e78576040517f08c379a0000000000000000000000000000000000000000000000000000000008152600401610e6f906129c8565b60405180910390fd5b600073ffffffffffffffffffffffffffffffffffffffff168273ffffffffffffffffffffffffffffffffffffffff161415610ee8576040517f08c379a0000000000000000000000000000000000000000000000000000000008152600401610edf90612a08565b60405180910390fd5b600060036000858152602001908152602001600020905080600701543414610f45576040517f08c379a0000000000000000000000000000000000000000000000000000000008152600401610f3c906129e8565b60405180910390fd5b8060010160009054906101000a900473ffffffffffffffffffffffffffffffffffffffff1673ffffffffffffffffffffffffffffffffffffffff166108fc349081150290604051600060405180830381858888f19350505050158015610faf573d6000803e3d6000fd5b508273ffffffffffffffffffffffffffffffffffffffff168160010160009054906101000a900473ffffffffffffffffffffffffffffffffffffffff1673ffffffffffffffffffffffffffffffffffffffff16857f758a3c82d07a868d5f746b0a47fe0afabeaf654009983f2eac53735ea4c53d70346040516110329190612a6a565b60405180910390a4611044848461188e565b50505050565b81806003600083815260200190815260200160002060000154146110a3576040517f08c379a000000000000000000000000000000000000000000000000000000000815260040161109a906129c8565b60405180910390fd5b60008054906101000a900473ffffffffffffffffffffffffffffffffffffffff1673ffffffffffffffffffffffffffffffffffffffff163373ffffffffffffffffffffffffffffffffffffffff1614611131576040517f08c379a000000000000000000000000000000000000000000000000000000000815260040161112890612a28565b60405180910390fd5b600060036000858152602001908152602001600020905082816007018190555050505050565b60008054906101000a900473ffffffffffffffffffffffffffffffffffffffff1681565b60015481565b6002602052816000526040600020818154811061119d57600080fd5b9060005260206000209060080201600091509150508060000154908060010160009054906101000a900473ffffffffffffffffffffffffffffffffffffffff16908060020180546111ed90612cf1565b80601f016020809104026020016040519081016040528092919081815260200182805461121990612cf1565b80156112665780601f1061123b57610100808354040283529160200191611266565b820191906000526020600020905b81548152906001019060200180831161124957829003601f168201915b50505050509080600301805461127b90612cf1565b80601f01602080910402602001604051908101604052809291908181526020018280546112a790612cf1565b80156112f45780601f106112c9576101008083540402835291602001916112f4565b820191906000526020600020905b8154815290600101906020018083116112d757829003601f168201915b50505050509080600401805461130990612cf1565b80601f016020809104026020016040519081016040528092919081815260200182805461133590612cf1565b80156113825780601f1061135757610100808354040283529160200191611382565b820191906000526020600020905b81548152906001019060200180831161136557829003601f168201915b50505050509080600501805461139790612cf1565b80601f01602080910402602001604051908101604052809291908181526020018280546113c390612cf1565b80156114105780601f106113e557610100808354040283529160200191611410565b820191906000526020600020905b8154815290600101906020018083116113f357829003601f168201915b5050505050908060060160009054906101000a900460ff16908060060160019054906101000a900460ff16908060070154905089565b61144e6120a3565b81806003600083815260200190815260200160002060000154146114a7576040517f08c379a000000000000000000000000000000000000000000000000000000000815260040161149e906129c8565b60405180910390fd5b6003600084815260200190815260200160002060405180610120016040529081600082015481526020016001820160009054906101000a900473ffffffffffffffffffffffffffffffffffffffff1673ffffffffffffffffffffffffffffffffffffffff1673ffffffffffffffffffffffffffffffffffffffff16815260200160028201805461153690612cf1565b80601f016020809104026020016040519081016040528092919081815260200182805461156290612cf1565b80156115af5780601f10611584576101008083540402835291602001916115af565b820191906000526020600020905b81548152906001019060200180831161159257829003601f168201915b505050505081526020016003820180546115c890612cf1565b80601f01602080910402602001604051908101604052809291908181526020018280546115f490612cf1565b80156116415780601f1061161657610100808354040283529160200191611641565b820191906000526020600020905b81548152906001019060200180831161162457829003601f168201915b5050505050815260200160048201805461165a90612cf1565b80601f016020809104026020016040519081016040528092919081815260200182805461168690612cf1565b80156116d35780601f106116a8576101008083540402835291602001916116d3565b820191906000526020600020905b8154815290600101906020018083116116b657829003601f168201915b505050505081526020016005820180546116ec90612cf1565b80601f016020809104026020016040519081016040528092919081815260200182805461171890612cf1565b80156117655780601f1061173a57610100808354040283529160200191611765565b820191906000526020600020905b81548152906001019060200180831161174857829003601f168201915b505050505081526020016006820160009054906101000a900460ff1660028111156117b9577f4e487b7100000000000000000000000000000000000000000000000000000000600052602160045260246000fd5b60028111156117f1577f4e487b7100000000000000000000000000000000000000000000000000000000600052602160045260246000fd5b81526020016006820160019054906101000a900460ff166004811115611840577f4e487b7100000000000000000000000000000000000000000000000000000000600052602160045260246000fd5b6004811115611878577f4e487b7100000000000000000000000000000000000000000000000000000000600052602160045260246000fd5b8152602001600782015481525050915050919050565b600060036000848152602001908152602001600020905060008160010160009054906101000a900473ffffffffffffffffffffffffffffffffffffffff169050828260010160006101000a81548173ffffffffffffffffffffffffffffffffffffffff021916908373ffffffffffffffffffffffffffffffffffffffff16021790555060028260060160006101000a81548160ff0219169083600281111561195f577f4e487b7100000000000000000000000000000000000000000000000000000000600052602160045260246000fd5b021790555061196e8185611c0a565b600260008473ffffffffffffffffffffffffffffffffffffffff1673ffffffffffffffffffffffffffffffffffffffff168152602001908152602001600020829080600181540180825580915050600190039060005260206000209060080201600090919091909150600082015481600001556001820160009054906101000a900473ffffffffffffffffffffffffffffffffffffffff168160010160006101000a81548173ffffffffffffffffffffffffffffffffffffffff021916908373ffffffffffffffffffffffffffffffffffffffff1602179055506002820181600201908054611a5c90612cf1565b611a67929190612175565b506003820181600301908054611a7c90612cf1565b611a87929190612175565b506004820181600401908054611a9c90612cf1565b611aa7929190612175565b506005820181600501908054611abc90612cf1565b611ac7929190612175565b506006820160009054906101000a900460ff168160060160006101000a81548160ff02191690836002811115611b26577f4e487b7100000000000000000000000000000000000000000000000000000000600052602160045260246000fd5b02179055506006820160019054906101000a900460ff168160060160016101000a81548160ff02191690836004811115611b89577f4e487b7100000000000000000000000000000000000000000000000000000000600052602160045260246000fd5b02179055506007820154816007015550508273ffffffffffffffffffffffffffffffffffffffff168173ffffffffffffffffffffffffffffffffffffffff16857f20b4587b96d546fb8dda06f8a11cc80fd5debab09bf4795380734af50f3d259c8560070154604051611bfc9190612a6a565b60405180910390a450505050565b6000600260008473ffffffffffffffffffffffffffffffffffffffff1673ffffffffffffffffffffffffffffffffffffffff168152602001908152602001600020905060005b81805490508110156120175782828281548110611c96577f4e487b7100000000000000000000000000000000000000000000000000000000600052603260045260246000fd5b9060005260206000209060080201600001541415612004578160018380549050611cc09190612bf5565b81548110611cf7577f4e487b7100000000000000000000000000000000000000000000000000000000600052603260045260246000fd5b9060005260206000209060080201828281548110611d3e577f4e487b7100000000000000000000000000000000000000000000000000000000600052603260045260246000fd5b9060005260206000209060080201600082015481600001556001820160009054906101000a900473ffffffffffffffffffffffffffffffffffffffff168160010160006101000a81548173ffffffffffffffffffffffffffffffffffffffff021916908373ffffffffffffffffffffffffffffffffffffffff1602179055506002820181600201908054611dd190612cf1565b611ddc929190612175565b506003820181600301908054611df190612cf1565b611dfc929190612175565b506004820181600401908054611e1190612cf1565b611e1c929190612175565b506005820181600501908054611e3190612cf1565b611e3c929190612175565b506006820160009054906101000a900460ff168160060160006101000a81548160ff02191690836002811115611e9b577f4e487b7100000000000000000000000000000000000000000000000000000000600052602160045260246000fd5b02179055506006820160019054906101000a900460ff168160060160016101000a81548160ff02191690836004811115611efe577f4e487b7100000000000000000000000000000000000000000000000000000000600052602160045260246000fd5b02179055506007820154816007015590505081805480611f47577f4e487b7100000000000000000000000000000000000000000000000000000000600052603160045260246000fd5b60019003818190600052602060002090600802016000808201600090556001820160006101000a81549073ffffffffffffffffffffffffffffffffffffffff0219169055600282016000611f9b9190612202565b600382016000611fab9190612202565b600482016000611fbb9190612202565b600582016000611fcb9190612202565b6006820160006101000a81549060ff02191690556006820160016101000a81549060ff0219169055600782016000905550509055612017565b808061200f90612d23565b915050611c50565b50505050565b82805461202990612cf1565b90600052602060002090601f01602090048101928261204b5760008555612092565b82601f1061206457805160ff1916838001178555612092565b82800160010185558215612092579182015b82811115612091578251825591602001919060010190612076565b5b50905061209f9190612242565b5090565b60405180610120016040528060008152602001600073ffffffffffffffffffffffffffffffffffffffff1681526020016060815260200160608152602001606081526020016060815260200160006002811115612129577f4e487b7100000000000000000000000000000000000000000000000000000000600052602160045260246000fd5b815260200160006004811115612168577f4e487b7100000000000000000000000000000000000000000000000000000000600052602160045260246000fd5b8152602001600081525090565b82805461218190612cf1565b90600052602060002090601f0160209004810192826121a357600085556121f1565b82601f106121b457805485556121f1565b828001600101855582156121f157600052602060002091601f016020900482015b828111156121f05782548255916001019190600101906121d5565b5b5090506121fe9190612242565b5090565b50805461220e90612cf1565b6000825580601f10612220575061223f565b601f01602090049060005260206000209081019061223e9190612242565b5b50565b5b8082111561225b576000816000905550600101612243565b5090565b600061227261226d84612b5f565b612b2e565b90508281526020810184848401111561228a57600080fd5b612295848285612caf565b509392505050565b6000813590506122ac81612e61565b92915050565b6000813590506122c181612e78565b92915050565b600082601f8301126122d857600080fd5b81356122e884826020860161225f565b91505092915050565b60008135905061230081612e88565b92915050565b60006020828403121561231857600080fd5b60006123268482850161229d565b91505092915050565b6000806040838503121561234257600080fd5b60006123508582860161229d565b9250506020612361858286016122f1565b9150509250929050565b60008060008060008060c0878903121561238457600080fd5b600087013567ffffffffffffffff81111561239e57600080fd5b6123aa89828a016122c7565b965050602087013567ffffffffffffffff8111156123c757600080fd5b6123d389828a016122c7565b955050604087013567ffffffffffffffff8111156123f057600080fd5b6123fc89828a016122c7565b945050606087013567ffffffffffffffff81111561241957600080fd5b61242589828a016122c7565b935050608061243689828a016122b2565b92505060a061244789828a016122f1565b9150509295509295509295565b60006020828403121561246657600080fd5b6000612474848285016122f1565b91505092915050565b6000806040838503121561249057600080fd5b600061249e858286016122f1565b92505060206124af8582860161229d565b9150509250929050565b600080604083850312156124cc57600080fd5b60006124da858286016122f1565b92505060206124eb858286016122f1565b9150509250929050565b6000612501838361274a565b905092915050565b61251281612c29565b82525050565b61252181612c29565b82525050565b600061253282612b9f565b61253c8185612bc2565b93508360208202850161254e85612b8f565b8060005b8581101561258a578484038952815161256b85826124f5565b945061257683612bb5565b925060208a01995050600181019050612552565b50829750879550505050505092915050565b6125a581612c8b565b82525050565b6125b481612c8b565b82525050565b6125c381612c9d565b82525050565b6125d281612c9d565b82525050565b60006125e382612baa565b6125ed8185612bd3565b93506125fd818560208601612cbe565b61260681612e28565b840191505092915050565b600061261c82612baa565b6126268185612be4565b9350612636818560208601612cbe565b61263f81612e28565b840191505092915050565b6000612657601383612be4565b91507f4c616e6420646f6573206e6f74206578697374000000000000000000000000006000830152602082019050919050565b6000612697601983612be4565b91507f496e636f7272656374207472616e7366657220616d6f756e74000000000000006000830152602082019050919050565b60006126d7601983612be4565b91507f496e76616c6964206e6577206f776e65722061646472657373000000000000006000830152602082019050919050565b6000612717601683612be4565b91507f4e6f742074686520636f6e7472616374206f776e6572000000000000000000006000830152602082019050919050565b60006101208301600083015161276360008601826128fe565b5060208301516127766020860182612509565b506040830151848203604086015261278e82826125d8565b915050606083015184820360608601526127a882826125d8565b915050608083015184820360808601526127c282826125d8565b91505060a083015184820360a08601526127dc82826125d8565b91505060c08301516127f160c086018261259c565b5060e083015161280460e08601826125ba565b506101008301516128196101008601826128fe565b508091505092915050565b60006101208301600083015161283d60008601826128fe565b5060208301516128506020860182612509565b506040830151848203604086015261286882826125d8565b9150506060830151848203606086015261288282826125d8565b9150506080830151848203608086015261289c82826125d8565b91505060a083015184820360a08601526128b682826125d8565b91505060c08301516128cb60c086018261259c565b5060e08301516128de60e08601826125ba565b506101008301516128f36101008601826128fe565b508091505092915050565b61290781612c81565b82525050565b61291681612c81565b82525050565b60006020820190506129316000830184612518565b92915050565b600060208201905081810360008301526129518184612527565b905092915050565b600060a08201905081810360008301526129738188612611565b905081810360208301526129878187612611565b9050818103604083015261299b8186612611565b905081810360608301526129af8185612611565b90506129be60808301846125c9565b9695505050505050565b600060208201905081810360008301526129e18161264a565b9050919050565b60006020820190508181036000830152612a018161268a565b9050919050565b60006020820190508181036000830152612a21816126ca565b9050919050565b60006020820190508181036000830152612a418161270a565b9050919050565b60006020820190508181036000830152612a628184612824565b905092915050565b6000602082019050612a7f600083018461290d565b92915050565b600061012082019050612a9b600083018c61290d565b612aa8602083018b612518565b8181036040830152612aba818a612611565b90508181036060830152612ace8189612611565b90508181036080830152612ae28188612611565b905081810360a0830152612af68187612611565b9050612b0560c08301866125ab565b612b1260e08301856125c9565b612b2061010083018461290d565b9a9950505050505050505050565b6000604051905081810181811067ffffffffffffffff82111715612b5557612b54612df9565b5b8060405250919050565b600067ffffffffffffffff821115612b7a57612b79612df9565b5b601f19601f8301169050602081019050919050565b6000819050602082019050919050565b600081519050919050565b600081519050919050565b6000602082019050919050565b600082825260208201905092915050565b600082825260208201905092915050565b600082825260208201905092915050565b6000612c0082612c81565b9150612c0b83612c81565b925082821015612c1e57612c1d612d6c565b5b828203905092915050565b6000612c3482612c61565b9050919050565b6000819050612c4982612e39565b919050565b6000819050612c5c82612e4d565b919050565b600073ffffffffffffffffffffffffffffffffffffffff82169050919050565b6000819050919050565b6000612c9682612c3b565b9050919050565b6000612ca882612c4e565b9050919050565b82818337600083830152505050565b60005b83811015612cdc578082015181840152602081019050612cc1565b83811115612ceb576000848401525b50505050565b60006002820490506001821680612d0957607f821691505b60208210811415612d1d57612d1c612dca565b5b50919050565b6000612d2e82612c81565b91507fffffffffffffffffffffffffffffffffffffffffffffffffffffffffffffffff821415612d6157612d60612d6c565b5b600182019050919050565b7f4e487b7100000000000000000000000000000000000000000000000000000000600052601160045260246000fd5b7f4e487b7100000000000000000000000000000000000000000000000000000000600052602160045260246000fd5b7f4e487b7100000000000000000000000000000000000000000000000000000000600052602260045260246000fd5b7f4e487b7100000000000000000000000000000000000000000000000000000000600052604160045260246000fd5b6000601f19601f8301169050919050565b60038110612e4a57612e49612d9b565b5b50565b60058110612e5e57612e5d612d9b565b5b50565b612e6a81612c29565b8114612e7557600080fd5b50565b60058110612e8557600080fd5b50565b612e9181612c81565b8114612e9c57600080fd5b5056fea26469706673582212200a3dbbed085bf7075fcca2ceb5d01e80c38778b1c75a032a5460cf63c2dea81b64736f6c63430008000033",
  "linkReferences": {},
  "deployedLinkReferences": {}
}