{
  "_format": "hh-sol-artifact-1",
  "contractName": "LandRegistery",
  "sourceName": "contracts/LandRegistery.sol",
  "abi": [
    {
      "inputs": [],
      "stateMutability": "nonpayable",
      "type": "constructor"
    },
    {
      "anonymous": false,
      "inputs": [
        {
          "indexed": true,
          "internalType": "uint256",
          "name": "landId",
          "type": "uint256"
        },
        {
          "indexed": true,
          "internalType": "address",
          "name": "owner",
          "type": "address"
        },
        {
          "indexed": false,
          "internalType": "string",
          "name": "location",
          "type": "string"
        },
        {
          "indexed": false,
          "internalType": "string",
          "name": "area",
          "type": "string"
        },
        {
          "indexed": false,
          "internalType": "string",
          "name": "dimensionOfLand",
          "type": "string"
        },
        {
          "indexed": false,
          "internalType": "string",
          "name": "landIdentificationNumber",
          "type": "string"
        },
        {
          "indexed": false,
          "internalType": "enum LandRegistery.LandType",
          "name": "landType",
          "type": "uint8"
        }
      ],
      "name": "LandRegistered",
      "type": "event"
    },
    {
      "anonymous": false,
      "inputs": [
        {
          "indexed": true,
          "internalType": "uint256",
          "name": "landId",
          "type": "uint256"
        },
        {
          "indexed": true,
          "internalType": "address",
          "name": "from",
          "type": "address"
        },
        {
          "indexed": true,
          "internalType": "address",
          "name": "to",
          "type": "address"
        },
        {
          "indexed": false,
          "internalType": "string",
          "name": "transferAmount",
          "type": "string"
        }
      ],
      "name": "LandTransferred",
      "type": "event"
    },
    {
      "inputs": [
        {
          "internalType": "uint256",
          "name": "",
          "type": "uint256"
        }
      ],
      "name": "allLands",
      "outputs": [
        {
          "internalType": "uint256",
          "name": "landId",
          "type": "uint256"
        },
        {
          "internalType": "address",
          "name": "prevOwner",
          "type": "address"
        },
        {
          "internalType": "address",
          "name": "currentOwner",
          "type": "address"
        },
        {
          "internalType": "string",
          "name": "location",
          "type": "string"
        },
        {
          "internalType": "string",
          "name": "area",
          "type": "string"
        },
        {
          "internalType": "string",
          "name": "dimensionOfLand",
          "type": "string"
        },
        {
          "internalType": "string",
          "name": "landIdentificationNumber",
          "type": "string"
        },
        {
          "internalType": "enum LandRegistery.LandStatus",
          "name": "status",
          "type": "uint8"
        },
        {
          "internalType": "enum LandRegistery.LandType",
          "name": "landType",
          "type": "uint8"
        },
        {
          "internalType": "string",
          "name": "transferAmount",
          "type": "string"
        }
      ],
      "stateMutability": "view",
      "type": "function"
    },
    {
      "inputs": [
        {
          "internalType": "uint256",
          "name": "_landId",
          "type": "uint256"
        }
      ],
      "name": "getLandDetails",
      "outputs": [
        {
          "components": [
            {
              "internalType": "uint256",
              "name": "landId",
              "type": "uint256"
            },
            {
              "internalType": "address",
              "name": "prevOwner",
              "type": "address"
            },
            {
              "internalType": "address",
              "name": "currentOwner",
              "type": "address"
            },
            {
              "internalType": "string",
              "name": "location",
              "type": "string"
            },
            {
              "internalType": "string",
              "name": "area",
              "type": "string"
            },
            {
              "internalType": "string",
              "name": "dimensionOfLand",
              "type": "string"
            },
            {
              "internalType": "string",
              "name": "landIdentificationNumber",
              "type": "string"
            },
            {
              "internalType": "enum LandRegistery.LandStatus",
              "name": "status",
              "type": "uint8"
            },
            {
              "internalType": "enum LandRegistery.LandType",
              "name": "landType",
              "type": "uint8"
            },
            {
              "internalType": "string",
              "name": "transferAmount",
              "type": "string"
            }
          ],
          "internalType": "struct LandRegistery.Land",
          "name": "",
          "type": "tuple"
        }
      ],
      "stateMutability": "view",
      "type": "function"
    },
    {
      "inputs": [
        {
          "internalType": "address",
          "name": "_userAddress",
          "type": "address"
        }
      ],
      "name": "getUserLands",
      "outputs": [
        {
          "components": [
            {
              "internalType": "uint256",
              "name": "landId",
              "type": "uint256"
            },
            {
              "internalType": "address",
              "name": "prevOwner",
              "type": "address"
            },
            {
              "internalType": "address",
              "name": "currentOwner",
              "type": "address"
            },
            {
              "internalType": "string",
              "name": "location",
              "type": "string"
            },
            {
              "internalType": "string",
              "name": "area",
              "type": "string"
            },
            {
              "internalType": "string",
              "name": "dimensionOfLand",
              "type": "string"
            },
            {
              "internalType": "string",
              "name": "landIdentificationNumber",
              "type": "string"
            },
            {
              "internalType": "enum LandRegistery.LandStatus",
              "name": "status",
              "type": "uint8"
            },
            {
              "internalType": "enum LandRegistery.LandType",
              "name": "landType",
              "type": "uint8"
            },
            {
              "internalType": "string",
              "name": "transferAmount",
              "type": "string"
            }
          ],
          "internalType": "struct LandRegistery.Land[]",
          "name": "",
          "type": "tuple[]"
        }
      ],
      "stateMutability": "view",
      "type": "function"
    },
    {
      "inputs": [],
      "name": "owner",
      "outputs": [
        {
          "internalType": "address",
          "name": "",
          "type": "address"
        }
      ],
      "stateMutability": "view",
      "type": "function"
    },
    {
      "inputs": [
        {
          "internalType": "string",
          "name": "input",
          "type": "string"
        }
      ],
      "name": "parseAndConvert",
      "outputs": [
        {
          "internalType": "uint256",
          "name": "",
          "type": "uint256"
        }
      ],
      "stateMutability": "pure",
      "type": "function"
    },
    {
      "inputs": [
        {
          "internalType": "string",
          "name": "_location",
          "type": "string"
        },
        {
          "internalType": "string",
          "name": "_area",
          "type": "string"
        },
        {
          "internalType": "string",
          "name": "_dimensionOfLand",
          "type": "string"
        },
        {
          "internalType": "string",
          "name": "_landIdentificationNumber",
          "type": "string"
        },
        {
          "internalType": "enum LandRegistery.LandType",
          "name": "_landType",
          "type": "uint8"
        }
      ],
      "name": "registerLand",
      "outputs": [],
      "stateMutability": "nonpayable",
      "type": "function"
    },
    {
      "inputs": [
        {
          "internalType": "string",
          "name": "_landIdentificationNumber",
          "type": "string"
        },
        {
          "internalType": "address",
          "name": "_newOwner",
          "type": "address"
        },
        {
          "internalType": "string",
          "name": "_transferAmount",
          "type": "string"
        }
      ],
      "name": "transferLand",
      "outputs": [],
      "stateMutability": "nonpayable",
      "type": "function"
    },
    {
      "inputs": [
        {
          "internalType": "address",
          "name": "",
          "type": "address"
        },
        {
          "internalType": "uint256",
          "name": "",
          "type": "uint256"
        }
      ],
      "name": "userLands",
      "outputs": [
        {
          "internalType": "uint256",
          "name": "landId",
          "type": "uint256"
        },
        {
          "internalType": "address",
          "name": "prevOwner",
          "type": "address"
        },
        {
          "internalType": "address",
          "name": "currentOwner",
          "type": "address"
        },
        {
          "internalType": "string",
          "name": "location",
          "type": "string"
        },
        {
          "internalType": "string",
          "name": "area",
          "type": "string"
        },
        {
          "internalType": "string",
          "name": "dimensionOfLand",
          "type": "string"
        },
        {
          "internalType": "string",
          "name": "landIdentificationNumber",
          "type": "string"
        },
        {
          "internalType": "enum LandRegistery.LandStatus",
          "name": "status",
          "type": "uint8"
        },
        {
          "internalType": "enum LandRegistery.LandType",
          "name": "landType",
          "type": "uint8"
        },
        {
          "internalType": "string",
          "name": "transferAmount",
          "type": "string"
        }
      ],
      "stateMutability": "view",
      "type": "function"
    }
  ],
  "bytecode": "0x6080604052600060015534801561001557600080fd5b50336000806101000a81548173ffffffffffffffffffffffffffffffffffffffff021916908373ffffffffffffffffffffffffffffffffffffffff160217905550613016806100656000396000f3fe608060405234801561001057600080fd5b50600436106100885760003560e01c80636623771e1161005b5780636623771e146101425780638da5cb5b1461015e578063dc219adc1461017c578063fe0cb7dc146101b557610088565b806322ff7c521461008d57806328bf5ef5146100a95780633ea73ae6146100d957806341697be014610109575b600080fd5b6100a760048036038101906100a291906124b5565b6101e5565b005b6100c360048036038101906100be919061240f565b6109e0565b6040516100d09190612a94565b60405180910390f35b6100f360048036038101906100ee9190612474565b610f1d565b6040516101009190612bc9565b60405180910390f35b610123600480360381019061011e919061260b565b610f30565b6040516101399a99989796959493929190612be4565b60405180910390f35b61015c60048036038101906101579190612534565b611286565b005b6101666118e6565b6040516101739190612a79565b60405180910390f35b61019660048036038101906101919190612438565b61190a565b6040516101ac9a99989796959493929190612be4565b60405180910390f35b6101cf60048036038101906101ca919061260b565b611c7d565b6040516101dc9190612ba7565b60405180910390f35b600073ffffffffffffffffffffffffffffffffffffffff168273ffffffffffffffffffffffffffffffffffffffff161415610255576040517f08c379a000000000000000000000000000000000000000000000000000000000815260040161024c90612b47565b60405180910390fd5b600061026084610f1d565b905060006003600083815260200190815260200160002090503373ffffffffffffffffffffffffffffffffffffffff168160020160009054906101000a900473ffffffffffffffffffffffffffffffffffffffff1673ffffffffffffffffffffffffffffffffffffffff161461030b576040517f08c379a000000000000000000000000000000000000000000000000000000000815260040161030290612b67565b60405180910390fd5b8060020160009054906101000a900473ffffffffffffffffffffffffffffffffffffffff168160010160006101000a81548173ffffffffffffffffffffffffffffffffffffffff021916908373ffffffffffffffffffffffffffffffffffffffff160217905550838160020160006101000a81548173ffffffffffffffffffffffffffffffffffffffff021916908373ffffffffffffffffffffffffffffffffffffffff16021790555060028160070160006101000a81548160ff02191690836002811115610403577f4e487b7100000000000000000000000000000000000000000000000000000000600052602160045260246000fd5b021790555082816008019080519060200190610420929190612149565b50600260003373ffffffffffffffffffffffffffffffffffffffff1673ffffffffffffffffffffffffffffffffffffffff168152602001908152602001600020819080600181540180825580915050600190039060005260206000209060090201600090919091909150600082015481600001556001820160009054906101000a900473ffffffffffffffffffffffffffffffffffffffff168160010160006101000a81548173ffffffffffffffffffffffffffffffffffffffff021916908373ffffffffffffffffffffffffffffffffffffffff1602179055506002820160009054906101000a900473ffffffffffffffffffffffffffffffffffffffff168160020160006101000a81548173ffffffffffffffffffffffffffffffffffffffff021916908373ffffffffffffffffffffffffffffffffffffffff160217905550600382018160030190805461057690612e32565b6105819291906121cf565b50600482018160040190805461059690612e32565b6105a19291906121cf565b5060058201816005019080546105b690612e32565b6105c19291906121cf565b5060068201816006019080546105d690612e32565b6105e19291906121cf565b506007820160009054906101000a900460ff168160070160006101000a81548160ff02191690836002811115610640577f4e487b7100000000000000000000000000000000000000000000000000000000600052602160045260246000fd5b02179055506007820160019054906101000a900460ff168160070160016101000a81548160ff021916908360048111156106a3577f4e487b7100000000000000000000000000000000000000000000000000000000600052602160045260246000fd5b021790555060088201816008019080546106bc90612e32565b6106c79291906121cf565b505050600260008573ffffffffffffffffffffffffffffffffffffffff1673ffffffffffffffffffffffffffffffffffffffff168152602001908152602001600020819080600181540180825580915050600190039060005260206000209060090201600090919091909150600082015481600001556001820160009054906101000a900473ffffffffffffffffffffffffffffffffffffffff168160010160006101000a81548173ffffffffffffffffffffffffffffffffffffffff021916908373ffffffffffffffffffffffffffffffffffffffff1602179055506002820160009054906101000a900473ffffffffffffffffffffffffffffffffffffffff168160020160006101000a81548173ffffffffffffffffffffffffffffffffffffffff021916908373ffffffffffffffffffffffffffffffffffffffff160217905550600382018160030190805461081f90612e32565b61082a9291906121cf565b50600482018160040190805461083f90612e32565b61084a9291906121cf565b50600582018160050190805461085f90612e32565b61086a9291906121cf565b50600682018160060190805461087f90612e32565b61088a9291906121cf565b506007820160009054906101000a900460ff168160070160006101000a81548160ff021916908360028111156108e9577f4e487b7100000000000000000000000000000000000000000000000000000000600052602160045260246000fd5b02179055506007820160019054906101000a900460ff168160070160016101000a81548160ff0219169083600481111561094c577f4e487b7100000000000000000000000000000000000000000000000000000000600052602160045260246000fd5b0217905550600882018160080190805461096590612e32565b6109709291906121cf565b5050508373ffffffffffffffffffffffffffffffffffffffff163373ffffffffffffffffffffffffffffffffffffffff16837fc4047e06cead7bf10729ec5fd49ab0b51199099f985bd6bdbe3520655246381c866040516109d19190612ab6565b60405180910390a45050505050565b6060600260008373ffffffffffffffffffffffffffffffffffffffff1673ffffffffffffffffffffffffffffffffffffffff168152602001908152602001600020805480602002602001604051908101604052809291908181526020016000905b82821015610f12578382906000526020600020906009020160405180610140016040529081600082015481526020016001820160009054906101000a900473ffffffffffffffffffffffffffffffffffffffff1673ffffffffffffffffffffffffffffffffffffffff1673ffffffffffffffffffffffffffffffffffffffff1681526020016002820160009054906101000a900473ffffffffffffffffffffffffffffffffffffffff1673ffffffffffffffffffffffffffffffffffffffff1673ffffffffffffffffffffffffffffffffffffffff168152602001600382018054610b2b90612e32565b80601f0160208091040260200160405190810160405280929190818152602001828054610b5790612e32565b8015610ba45780601f10610b7957610100808354040283529160200191610ba4565b820191906000526020600020905b815481529060010190602001808311610b8757829003601f168201915b50505050508152602001600482018054610bbd90612e32565b80601f0160208091040260200160405190810160405280929190818152602001828054610be990612e32565b8015610c365780601f10610c0b57610100808354040283529160200191610c36565b820191906000526020600020905b815481529060010190602001808311610c1957829003601f168201915b50505050508152602001600582018054610c4f90612e32565b80601f0160208091040260200160405190810160405280929190818152602001828054610c7b90612e32565b8015610cc85780601f10610c9d57610100808354040283529160200191610cc8565b820191906000526020600020905b815481529060010190602001808311610cab57829003601f168201915b50505050508152602001600682018054610ce190612e32565b80601f0160208091040260200160405190810160405280929190818152602001828054610d0d90612e32565b8015610d5a5780601f10610d2f57610100808354040283529160200191610d5a565b820191906000526020600020905b815481529060010190602001808311610d3d57829003601f168201915b505050505081526020016007820160009054906101000a900460ff166002811115610dae577f4e487b7100000000000000000000000000000000000000000000000000000000600052602160045260246000fd5b6002811115610de6577f4e487b7100000000000000000000000000000000000000000000000000000000600052602160045260246000fd5b81526020016007820160019054906101000a900460ff166004811115610e35577f4e487b7100000000000000000000000000000000000000000000000000000000600052602160045260246000fd5b6004811115610e6d577f4e487b7100000000000000000000000000000000000000000000000000000000600052602160045260246000fd5b8152602001600882018054610e8190612e32565b80601f0160208091040260200160405190810160405280929190818152602001828054610ead90612e32565b8015610efa5780601f10610ecf57610100808354040283529160200191610efa565b820191906000526020600020905b815481529060010190602001808311610edd57829003601f168201915b50505050508152505081526020019060010190610a41565b505050509050919050565b6000806020830151905080915050919050565b60036020528060005260406000206000915090508060000154908060010160009054906101000a900473ffffffffffffffffffffffffffffffffffffffff16908060020160009054906101000a900473ffffffffffffffffffffffffffffffffffffffff1690806003018054610fa590612e32565b80601f0160208091040260200160405190810160405280929190818152602001828054610fd190612e32565b801561101e5780601f10610ff35761010080835404028352916020019161101e565b820191906000526020600020905b81548152906001019060200180831161100157829003601f168201915b50505050509080600401805461103390612e32565b80601f016020809104026020016040519081016040528092919081815260200182805461105f90612e32565b80156110ac5780601f10611081576101008083540402835291602001916110ac565b820191906000526020600020905b81548152906001019060200180831161108f57829003601f168201915b5050505050908060050180546110c190612e32565b80601f01602080910402602001604051908101604052809291908181526020018280546110ed90612e32565b801561113a5780601f1061110f5761010080835404028352916020019161113a565b820191906000526020600020905b81548152906001019060200180831161111d57829003601f168201915b50505050509080600601805461114f90612e32565b80601f016020809104026020016040519081016040528092919081815260200182805461117b90612e32565b80156111c85780601f1061119d576101008083540402835291602001916111c8565b820191906000526020600020905b8154815290600101906020018083116111ab57829003601f168201915b5050505050908060070160009054906101000a900460ff16908060070160019054906101000a900460ff169080600801805461120390612e32565b80601f016020809104026020016040519081016040528092919081815260200182805461122f90612e32565b801561127c5780601f106112515761010080835404028352916020019161127c565b820191906000526020600020905b81548152906001019060200180831161125f57829003601f168201915b505050505090508a565b60008054906101000a900473ffffffffffffffffffffffffffffffffffffffff1673ffffffffffffffffffffffffffffffffffffffff163373ffffffffffffffffffffffffffffffffffffffff1614611314576040517f08c379a000000000000000000000000000000000000000000000000000000000815260040161130b90612b87565b60405180910390fd5b6001600081548092919061132790612e64565b9190505550600061133783610f1d565b90506000604051806101400160405280838152602001600073ffffffffffffffffffffffffffffffffffffffff1681526020013373ffffffffffffffffffffffffffffffffffffffff168152602001888152602001878152602001868152602001858152602001600160028111156113d8577f4e487b7100000000000000000000000000000000000000000000000000000000600052602160045260246000fd5b8152602001846004811115611416577f4e487b7100000000000000000000000000000000000000000000000000000000600052602160045260246000fd5b81526020016040518060400160405280600181526020017f30000000000000000000000000000000000000000000000000000000000000008152508152509050600260003373ffffffffffffffffffffffffffffffffffffffff1673ffffffffffffffffffffffffffffffffffffffff1681526020019081526020016000208190806001815401808255809150506001900390600052602060002090600902016000909190919091506000820151816000015560208201518160010160006101000a81548173ffffffffffffffffffffffffffffffffffffffff021916908373ffffffffffffffffffffffffffffffffffffffff16021790555060408201518160020160006101000a81548173ffffffffffffffffffffffffffffffffffffffff021916908373ffffffffffffffffffffffffffffffffffffffff1602179055506060820151816003019080519060200190611573929190612149565b506080820151816004019080519060200190611590929190612149565b5060a08201518160050190805190602001906115ad929190612149565b5060c08201518160060190805190602001906115ca929190612149565b5060e08201518160070160006101000a81548160ff0219169083600281111561161c577f4e487b7100000000000000000000000000000000000000000000000000000000600052602160045260246000fd5b02179055506101008201518160070160016101000a81548160ff02191690836004811115611673577f4e487b7100000000000000000000000000000000000000000000000000000000600052602160045260246000fd5b0217905550610120820151816008019080519060200190611695929190612149565b50505080600360008481526020019081526020016000206000820151816000015560208201518160010160006101000a81548173ffffffffffffffffffffffffffffffffffffffff021916908373ffffffffffffffffffffffffffffffffffffffff16021790555060408201518160020160006101000a81548173ffffffffffffffffffffffffffffffffffffffff021916908373ffffffffffffffffffffffffffffffffffffffff1602179055506060820151816003019080519060200190611760929190612149565b50608082015181600401908051906020019061177d929190612149565b5060a082015181600501908051906020019061179a929190612149565b5060c08201518160060190805190602001906117b7929190612149565b5060e08201518160070160006101000a81548160ff02191690836002811115611809577f4e487b7100000000000000000000000000000000000000000000000000000000600052602160045260246000fd5b02179055506101008201518160070160016101000a81548160ff02191690836004811115611860577f4e487b7100000000000000000000000000000000000000000000000000000000600052602160045260246000fd5b0217905550610120820151816008019080519060200190611882929190612149565b509050503373ffffffffffffffffffffffffffffffffffffffff16827f8d7e4a9f5fdf9ee8f3bf08a1972ccf962a75a81c44fa618aa7f7882b5a14552f89898989896040516118d5959493929190612ad8565b60405180910390a350505050505050565b60008054906101000a900473ffffffffffffffffffffffffffffffffffffffff1681565b6002602052816000526040600020818154811061192657600080fd5b9060005260206000209060090201600091509150508060000154908060010160009054906101000a900473ffffffffffffffffffffffffffffffffffffffff16908060020160009054906101000a900473ffffffffffffffffffffffffffffffffffffffff169080600301805461199c90612e32565b80601f01602080910402602001604051908101604052809291908181526020018280546119c890612e32565b8015611a155780601f106119ea57610100808354040283529160200191611a15565b820191906000526020600020905b8154815290600101906020018083116119f857829003601f168201915b505050505090806004018054611a2a90612e32565b80601f0160208091040260200160405190810160405280929190818152602001828054611a5690612e32565b8015611aa35780601f10611a7857610100808354040283529160200191611aa3565b820191906000526020600020905b815481529060010190602001808311611a8657829003601f168201915b505050505090806005018054611ab890612e32565b80601f0160208091040260200160405190810160405280929190818152602001828054611ae490612e32565b8015611b315780601f10611b0657610100808354040283529160200191611b31565b820191906000526020600020905b815481529060010190602001808311611b1457829003601f168201915b505050505090806006018054611b4690612e32565b80601f0160208091040260200160405190810160405280929190818152602001828054611b7290612e32565b8015611bbf5780601f10611b9457610100808354040283529160200191611bbf565b820191906000526020600020905b815481529060010190602001808311611ba257829003601f168201915b5050505050908060070160009054906101000a900460ff16908060070160019054906101000a900460ff1690806008018054611bfa90612e32565b80601f0160208091040260200160405190810160405280929190818152602001828054611c2690612e32565b8015611c735780601f10611c4857610100808354040283529160200191611c73565b820191906000526020600020905b815481529060010190602001808311611c5657829003601f168201915b505050505090508a565b611c8561225c565b6003600083815260200190815260200160002060405180610140016040529081600082015481526020016001820160009054906101000a900473ffffffffffffffffffffffffffffffffffffffff1673ffffffffffffffffffffffffffffffffffffffff1673ffffffffffffffffffffffffffffffffffffffff1681526020016002820160009054906101000a900473ffffffffffffffffffffffffffffffffffffffff1673ffffffffffffffffffffffffffffffffffffffff1673ffffffffffffffffffffffffffffffffffffffff168152602001600382018054611d6a90612e32565b80601f0160208091040260200160405190810160405280929190818152602001828054611d9690612e32565b8015611de35780601f10611db857610100808354040283529160200191611de3565b820191906000526020600020905b815481529060010190602001808311611dc657829003601f168201915b50505050508152602001600482018054611dfc90612e32565b80601f0160208091040260200160405190810160405280929190818152602001828054611e2890612e32565b8015611e755780601f10611e4a57610100808354040283529160200191611e75565b820191906000526020600020905b815481529060010190602001808311611e5857829003601f168201915b50505050508152602001600582018054611e8e90612e32565b80601f0160208091040260200160405190810160405280929190818152602001828054611eba90612e32565b8015611f075780601f10611edc57610100808354040283529160200191611f07565b820191906000526020600020905b815481529060010190602001808311611eea57829003601f168201915b50505050508152602001600682018054611f2090612e32565b80601f0160208091040260200160405190810160405280929190818152602001828054611f4c90612e32565b8015611f995780601f10611f6e57610100808354040283529160200191611f99565b820191906000526020600020905b815481529060010190602001808311611f7c57829003601f168201915b505050505081526020016007820160009054906101000a900460ff166002811115611fed577f4e487b7100000000000000000000000000000000000000000000000000000000600052602160045260246000fd5b6002811115612025577f4e487b7100000000000000000000000000000000000000000000000000000000600052602160045260246000fd5b81526020016007820160019054906101000a900460ff166004811115612074577f4e487b7100000000000000000000000000000000000000000000000000000000600052602160045260246000fd5b60048111156120ac577f4e487b7100000000000000000000000000000000000000000000000000000000600052602160045260246000fd5b81526020016008820180546120c090612e32565b80601f01602080910402602001604051908101604052809291908181526020018280546120ec90612e32565b80156121395780601f1061210e57610100808354040283529160200191612139565b820191906000526020600020905b81548152906001019060200180831161211c57829003601f168201915b5050505050815250509050919050565b82805461215590612e32565b90600052602060002090601f01602090048101928261217757600085556121be565b82601f1061219057805160ff19168380011785556121be565b828001600101855582156121be579182015b828111156121bd5782518255916020019190600101906121a2565b5b5090506121cb919061234b565b5090565b8280546121db90612e32565b90600052602060002090601f0160209004810192826121fd576000855561224b565b82601f1061220e578054855561224b565b8280016001018555821561224b57600052602060002091601f016020900482015b8281111561224a57825482559160010191906001019061222f565b5b509050612258919061234b565b5090565b60405180610140016040528060008152602001600073ffffffffffffffffffffffffffffffffffffffff168152602001600073ffffffffffffffffffffffffffffffffffffffff16815260200160608152602001606081526020016060815260200160608152602001600060028111156122ff577f4e487b7100000000000000000000000000000000000000000000000000000000600052602160045260246000fd5b81526020016000600481111561233e577f4e487b7100000000000000000000000000000000000000000000000000000000600052602160045260246000fd5b8152602001606081525090565b5b8082111561236457600081600090555060010161234c565b5090565b600061237b61237684612cd4565b612ca3565b90508281526020810184848401111561239357600080fd5b61239e848285612df0565b509392505050565b6000813590506123b581612fa2565b92915050565b6000813590506123ca81612fb9565b92915050565b600082601f8301126123e157600080fd5b81356123f1848260208601612368565b91505092915050565b60008135905061240981612fc9565b92915050565b60006020828403121561242157600080fd5b600061242f848285016123a6565b91505092915050565b6000806040838503121561244b57600080fd5b6000612459858286016123a6565b925050602061246a858286016123fa565b9150509250929050565b60006020828403121561248657600080fd5b600082013567ffffffffffffffff8111156124a057600080fd5b6124ac848285016123d0565b91505092915050565b6000806000606084860312156124ca57600080fd5b600084013567ffffffffffffffff8111156124e457600080fd5b6124f0868287016123d0565b9350506020612501868287016123a6565b925050604084013567ffffffffffffffff81111561251e57600080fd5b61252a868287016123d0565b9150509250925092565b600080600080600060a0868803121561254c57600080fd5b600086013567ffffffffffffffff81111561256657600080fd5b612572888289016123d0565b955050602086013567ffffffffffffffff81111561258f57600080fd5b61259b888289016123d0565b945050604086013567ffffffffffffffff8111156125b857600080fd5b6125c4888289016123d0565b935050606086013567ffffffffffffffff8111156125e157600080fd5b6125ed888289016123d0565b92505060806125fe888289016123bb565b9150509295509295909350565b60006020828403121561261d57600080fd5b600061262b848285016123fa565b91505092915050565b6000612640838361286f565b905092915050565b61265181612d6a565b82525050565b61266081612d6a565b82525050565b600061267182612d14565b61267b8185612d37565b93508360208202850161268d85612d04565b8060005b858110156126c957848403895281516126aa8582612634565b94506126b583612d2a565b925060208a01995050600181019050612691565b50829750879550505050505092915050565b6126e481612dcc565b82525050565b6126f381612dcc565b82525050565b61270281612dde565b82525050565b61271181612dde565b82525050565b600061272282612d1f565b61272c8185612d48565b935061273c818560208601612dff565b61274581612f69565b840191505092915050565b600061275b82612d1f565b6127658185612d59565b9350612775818560208601612dff565b61277e81612f69565b840191505092915050565b6000612796601983612d59565b91507f496e76616c6964206e6577206f776e65722061646472657373000000000000006000830152602082019050919050565b60006127d6602c83612d59565b91507f4f6e6c79207468652063757272656e74206f776e65722063616e207472616e7360008301527f66657220746865206c616e6400000000000000000000000000000000000000006020830152604082019050919050565b600061283c601683612d59565b91507f4e6f742074686520636f6e7472616374206f776e6572000000000000000000006000830152602082019050919050565b6000610140830160008301516128886000860182612a5b565b50602083015161289b6020860182612648565b5060408301516128ae6040860182612648565b50606083015184820360608601526128c68282612717565b915050608083015184820360808601526128e08282612717565b91505060a083015184820360a08601526128fa8282612717565b91505060c083015184820360c08601526129148282612717565b91505060e083015161292960e08601826126db565b5061010083015161293e6101008601826126f9565b506101208301518482036101208601526129588282612717565b9150508091505092915050565b60006101408301600083015161297e6000860182612a5b565b5060208301516129916020860182612648565b5060408301516129a46040860182612648565b50606083015184820360608601526129bc8282612717565b915050608083015184820360808601526129d68282612717565b91505060a083015184820360a08601526129f08282612717565b91505060c083015184820360c0860152612a0a8282612717565b91505060e0830151612a1f60e08601826126db565b50610100830151612a346101008601826126f9565b50610120830151848203610120860152612a4e8282612717565b9150508091505092915050565b612a6481612dc2565b82525050565b612a7381612dc2565b82525050565b6000602082019050612a8e6000830184612657565b92915050565b60006020820190508181036000830152612aae8184612666565b905092915050565b60006020820190508181036000830152612ad08184612750565b905092915050565b600060a0820190508181036000830152612af28188612750565b90508181036020830152612b068187612750565b90508181036040830152612b1a8186612750565b90508181036060830152612b2e8185612750565b9050612b3d6080830184612708565b9695505050505050565b60006020820190508181036000830152612b6081612789565b9050919050565b60006020820190508181036000830152612b80816127c9565b9050919050565b60006020820190508181036000830152612ba08161282f565b9050919050565b60006020820190508181036000830152612bc18184612965565b905092915050565b6000602082019050612bde6000830184612a6a565b92915050565b600061014082019050612bfa600083018d612a6a565b612c07602083018c612657565b612c14604083018b612657565b8181036060830152612c26818a612750565b90508181036080830152612c3a8189612750565b905081810360a0830152612c4e8188612750565b905081810360c0830152612c628187612750565b9050612c7160e08301866126ea565b612c7f610100830185612708565b818103610120830152612c928184612750565b90509b9a5050505050505050505050565b6000604051905081810181811067ffffffffffffffff82111715612cca57612cc9612f3a565b5b8060405250919050565b600067ffffffffffffffff821115612cef57612cee612f3a565b5b601f19601f8301169050602081019050919050565b6000819050602082019050919050565b600081519050919050565b600081519050919050565b6000602082019050919050565b600082825260208201905092915050565b600082825260208201905092915050565b600082825260208201905092915050565b6000612d7582612da2565b9050919050565b6000819050612d8a82612f7a565b919050565b6000819050612d9d82612f8e565b919050565b600073ffffffffffffffffffffffffffffffffffffffff82169050919050565b6000819050919050565b6000612dd782612d7c565b9050919050565b6000612de982612d8f565b9050919050565b82818337600083830152505050565b60005b83811015612e1d578082015181840152602081019050612e02565b83811115612e2c576000848401525b50505050565b60006002820490506001821680612e4a57607f821691505b60208210811415612e5e57612e5d612f0b565b5b50919050565b6000612e6f82612dc2565b91507fffffffffffffffffffffffffffffffffffffffffffffffffffffffffffffffff821415612ea257612ea1612ead565b5b600182019050919050565b7f4e487b7100000000000000000000000000000000000000000000000000000000600052601160045260246000fd5b7f4e487b7100000000000000000000000000000000000000000000000000000000600052602160045260246000fd5b7f4e487b7100000000000000000000000000000000000000000000000000000000600052602260045260246000fd5b7f4e487b7100000000000000000000000000000000000000000000000000000000600052604160045260246000fd5b6000601f19601f8301169050919050565b60038110612f8b57612f8a612edc565b5b50565b60058110612f9f57612f9e612edc565b5b50565b612fab81612d6a565b8114612fb657600080fd5b50565b60058110612fc657600080fd5b50565b612fd281612dc2565b8114612fdd57600080fd5b5056fea2646970667358221220ca68628377fa23b887f839fa449c29e4e3e1de57b99a3ad8084777c6b227bcec64736f6c63430008000033",
  "linkReferences": {},
  "deployedLinkReferences": {}
}