{
  "_format": "hh-sol-artifact-1",
  "contractName": "VehicleManagement",
  "sourceName": "contracts/VehicleManagement.sol",
  "abi": [
    {
      "inputs": [],
      "stateMutability": "nonpayable",
      "type": "constructor"
    },
    {
      "anonymous": false,
      "inputs": [
        {
          "indexed": true,
          "internalType": "address",
          "name": "user",
          "type": "address"
        },
        {
          "indexed": false,
          "internalType": "uint256",
          "name": "vehicleId",
          "type": "uint256"
        },
        {
          "indexed": false,
          "internalType": "uint64",
          "name": "phoneNum",
          "type": "uint64"
        },
        {
          "indexed": false,
          "internalType": "string",
          "name": "buyDate",
          "type": "string"
        },
        {
          "indexed": false,
          "internalType": "string",
          "name": "model",
          "type": "string"
        },
        {
          "indexed": false,
          "internalType": "string",
          "name": "plateNum",
          "type": "string"
        },
        {
          "indexed": false,
          "internalType": "string",
          "name": "insuranceValidity",
          "type": "string"
        },
        {
          "indexed": false,
          "internalType": "string",
          "name": "pollutionValidity",
          "type": "string"
        }
      ],
      "name": "VehicleAdded",
      "type": "event"
    },
    {
      "inputs": [
        {
          "internalType": "string",
          "name": "_vehicleId",
          "type": "string"
        },
        {
          "internalType": "uint16",
          "name": "phoneNum",
          "type": "uint16"
        },
        {
          "internalType": "string",
          "name": "buyDate",
          "type": "string"
        },
        {
          "internalType": "string",
          "name": "model",
          "type": "string"
        },
        {
          "internalType": "string",
          "name": "plateNum",
          "type": "string"
        },
        {
          "internalType": "string",
          "name": "insuranceValidity",
          "type": "string"
        },
        {
          "internalType": "string",
          "name": "pollutionValidity",
          "type": "string"
        }
      ],
      "name": "addVehicle",
      "outputs": [],
      "stateMutability": "nonpayable",
      "type": "function"
    },
    {
      "inputs": [
        {
          "internalType": "uint256",
          "name": "",
          "type": "uint256"
        }
      ],
      "name": "allVehicles",
      "outputs": [
        {
          "internalType": "uint256",
          "name": "vehicleId",
          "type": "uint256"
        },
        {
          "internalType": "uint64",
          "name": "phoneNum",
          "type": "uint64"
        },
        {
          "internalType": "string",
          "name": "buyDate",
          "type": "string"
        },
        {
          "internalType": "string",
          "name": "model",
          "type": "string"
        },
        {
          "internalType": "string",
          "name": "plateNum",
          "type": "string"
        },
        {
          "internalType": "string",
          "name": "insuranceValidity",
          "type": "string"
        },
        {
          "internalType": "string",
          "name": "pollutionValidity",
          "type": "string"
        }
      ],
      "stateMutability": "view",
      "type": "function"
    },
    {
      "inputs": [
        {
          "internalType": "address",
          "name": "_userAddress",
          "type": "address"
        }
      ],
      "name": "getUserVehicles",
      "outputs": [
        {
          "components": [
            {
              "internalType": "uint256",
              "name": "vehicleId",
              "type": "uint256"
            },
            {
              "internalType": "uint64",
              "name": "phoneNum",
              "type": "uint64"
            },
            {
              "internalType": "string",
              "name": "buyDate",
              "type": "string"
            },
            {
              "internalType": "string",
              "name": "model",
              "type": "string"
            },
            {
              "internalType": "string",
              "name": "plateNum",
              "type": "string"
            },
            {
              "internalType": "string",
              "name": "insuranceValidity",
              "type": "string"
            },
            {
              "internalType": "string",
              "name": "pollutionValidity",
              "type": "string"
            }
          ],
          "internalType": "struct VehicleManagement.Vehicle[]",
          "name": "",
          "type": "tuple[]"
        }
      ],
      "stateMutability": "view",
      "type": "function"
    },
    {
      "inputs": [],
      "name": "getVehicleCount",
      "outputs": [
        {
          "internalType": "uint64",
          "name": "",
          "type": "uint64"
        }
      ],
      "stateMutability": "view",
      "type": "function"
    },
    {
      "inputs": [
        {
          "internalType": "uint256",
          "name": "_vehicleId",
          "type": "uint256"
        }
      ],
      "name": "getVehicleDetails",
      "outputs": [
        {
          "components": [
            {
              "internalType": "uint256",
              "name": "vehicleId",
              "type": "uint256"
            },
            {
              "internalType": "uint64",
              "name": "phoneNum",
              "type": "uint64"
            },
            {
              "internalType": "string",
              "name": "buyDate",
              "type": "string"
            },
            {
              "internalType": "string",
              "name": "model",
              "type": "string"
            },
            {
              "internalType": "string",
              "name": "plateNum",
              "type": "string"
            },
            {
              "internalType": "string",
              "name": "insuranceValidity",
              "type": "string"
            },
            {
              "internalType": "string",
              "name": "pollutionValidity",
              "type": "string"
            }
          ],
          "internalType": "struct VehicleManagement.Vehicle",
          "name": "",
          "type": "tuple"
        }
      ],
      "stateMutability": "view",
      "type": "function"
    },
    {
      "inputs": [],
      "name": "owner",
      "outputs": [
        {
          "internalType": "address",
          "name": "",
          "type": "address"
        }
      ],
      "stateMutability": "view",
      "type": "function"
    },
    {
      "inputs": [
        {
          "internalType": "string",
          "name": "input",
          "type": "string"
        }
      ],
      "name": "parseAndConvert",
      "outputs": [
        {
          "internalType": "uint256",
          "name": "",
          "type": "uint256"
        }
      ],
      "stateMutability": "pure",
      "type": "function"
    },
    {
      "inputs": [
        {
          "internalType": "address",
          "name": "",
          "type": "address"
        },
        {
          "internalType": "uint256",
          "name": "",
          "type": "uint256"
        }
      ],
      "name": "userVehicles",
      "outputs": [
        {
          "internalType": "uint256",
          "name": "vehicleId",
          "type": "uint256"
        },
        {
          "internalType": "uint64",
          "name": "phoneNum",
          "type": "uint64"
        },
        {
          "internalType": "string",
          "name": "buyDate",
          "type": "string"
        },
        {
          "internalType": "string",
          "name": "model",
          "type": "string"
        },
        {
          "internalType": "string",
          "name": "plateNum",
          "type": "string"
        },
        {
          "internalType": "string",
          "name": "insuranceValidity",
          "type": "string"
        },
        {
          "internalType": "string",
          "name": "pollutionValidity",
          "type": "string"
        }
      ],
      "stateMutability": "view",
      "type": "function"
    }
  ],
  "bytecode": "0x608060405260008060146101000a81548167ffffffffffffffff021916908367ffffffffffffffff16021790555034801561003957600080fd5b50336000806101000a81548173ffffffffffffffffffffffffffffffffffffffff021916908373ffffffffffffffffffffffffffffffffffffffff160217905550611d6c806100896000396000f3fe608060405234801561001057600080fd5b50600436106100885760003560e01c80638da5cb5b1161005b5780638da5cb5b146101535780639bd298d214610171578063cc63ab0e1461018f578063d0263f3a146101c557610088565b806304314f491461008d578063321675f3146100bd5780633ea73ae6146100f357806343b522b014610123575b600080fd5b6100a760048036038101906100a291906115c3565b6101e1565b6040516100b491906118ee565b60405180910390f35b6100d760048036038101906100d291906115c3565b610524565b6040516100ea97969594939291906119bd565b60405180910390f35b61010d60048036038101906101089190611454565b610822565b60405161011a9190611910565b60405180910390f35b61013d600480360381019061013891906113ef565b610835565b60405161014a91906118cc565b60405180910390f35b61015b610be9565b60405161016891906118b1565b60405180910390f35b610179610c0d565b6040516101869190611a4f565b60405180910390f35b6101a960048036038101906101a49190611418565b610c2a565b6040516101bc97969594939291906119bd565b60405180910390f35b6101df60048036038101906101da9190611495565b610f45565b005b6101e961125e565b600260008381526020019081526020016000206040518060e0016040529081600082015481526020016001820160009054906101000a900467ffffffffffffffff1667ffffffffffffffff1667ffffffffffffffff16815260200160028201805461025390611c21565b80601f016020809104026020016040519081016040528092919081815260200182805461027f90611c21565b80156102cc5780601f106102a1576101008083540402835291602001916102cc565b820191906000526020600020905b8154815290600101906020018083116102af57829003601f168201915b505050505081526020016003820180546102e590611c21565b80601f016020809104026020016040519081016040528092919081815260200182805461031190611c21565b801561035e5780601f106103335761010080835404028352916020019161035e565b820191906000526020600020905b81548152906001019060200180831161034157829003601f168201915b5050505050815260200160048201805461037790611c21565b80601f01602080910402602001604051908101604052809291908181526020018280546103a390611c21565b80156103f05780601f106103c5576101008083540402835291602001916103f0565b820191906000526020600020905b8154815290600101906020018083116103d357829003601f168201915b5050505050815260200160058201805461040990611c21565b80601f016020809104026020016040519081016040528092919081815260200182805461043590611c21565b80156104825780601f1061045757610100808354040283529160200191610482565b820191906000526020600020905b81548152906001019060200180831161046557829003601f168201915b5050505050815260200160068201805461049b90611c21565b80601f01602080910402602001604051908101604052809291908181526020018280546104c790611c21565b80156105145780601f106104e957610100808354040283529160200191610514565b820191906000526020600020905b8154815290600101906020018083116104f757829003601f168201915b5050505050815250509050919050565b60026020528060005260406000206000915090508060000154908060010160009054906101000a900467ffffffffffffffff169080600201805461056790611c21565b80601f016020809104026020016040519081016040528092919081815260200182805461059390611c21565b80156105e05780601f106105b5576101008083540402835291602001916105e0565b820191906000526020600020905b8154815290600101906020018083116105c357829003601f168201915b5050505050908060030180546105f590611c21565b80601f016020809104026020016040519081016040528092919081815260200182805461062190611c21565b801561066e5780601f106106435761010080835404028352916020019161066e565b820191906000526020600020905b81548152906001019060200180831161065157829003601f168201915b50505050509080600401805461068390611c21565b80601f01602080910402602001604051908101604052809291908181526020018280546106af90611c21565b80156106fc5780601f106106d1576101008083540402835291602001916106fc565b820191906000526020600020905b8154815290600101906020018083116106df57829003601f168201915b50505050509080600501805461071190611c21565b80601f016020809104026020016040519081016040528092919081815260200182805461073d90611c21565b801561078a5780601f1061075f5761010080835404028352916020019161078a565b820191906000526020600020905b81548152906001019060200180831161076d57829003601f168201915b50505050509080600601805461079f90611c21565b80601f01602080910402602001604051908101604052809291908181526020018280546107cb90611c21565b80156108185780601f106107ed57610100808354040283529160200191610818565b820191906000526020600020905b8154815290600101906020018083116107fb57829003601f168201915b5050505050905087565b6000806020830151905080915050919050565b6060600160008373ffffffffffffffffffffffffffffffffffffffff1673ffffffffffffffffffffffffffffffffffffffff168152602001908152602001600020805480602002602001604051908101604052809291908181526020016000905b82821015610bde57838290600052602060002090600702016040518060e0016040529081600082015481526020016001820160009054906101000a900467ffffffffffffffff1667ffffffffffffffff1667ffffffffffffffff16815260200160028201805461090590611c21565b80601f016020809104026020016040519081016040528092919081815260200182805461093190611c21565b801561097e5780601f106109535761010080835404028352916020019161097e565b820191906000526020600020905b81548152906001019060200180831161096157829003601f168201915b5050505050815260200160038201805461099790611c21565b80601f01602080910402602001604051908101604052809291908181526020018280546109c390611c21565b8015610a105780601f106109e557610100808354040283529160200191610a10565b820191906000526020600020905b8154815290600101906020018083116109f357829003601f168201915b50505050508152602001600482018054610a2990611c21565b80601f0160208091040260200160405190810160405280929190818152602001828054610a5590611c21565b8015610aa25780601f10610a7757610100808354040283529160200191610aa2565b820191906000526020600020905b815481529060010190602001808311610a8557829003601f168201915b50505050508152602001600582018054610abb90611c21565b80601f0160208091040260200160405190810160405280929190818152602001828054610ae790611c21565b8015610b345780601f10610b0957610100808354040283529160200191610b34565b820191906000526020600020905b815481529060010190602001808311610b1757829003601f168201915b50505050508152602001600682018054610b4d90611c21565b80601f0160208091040260200160405190810160405280929190818152602001828054610b7990611c21565b8015610bc65780601f10610b9b57610100808354040283529160200191610bc6565b820191906000526020600020905b815481529060010190602001808311610ba957829003601f168201915b50505050508152505081526020019060010190610896565b505050509050919050565b60008054906101000a900473ffffffffffffffffffffffffffffffffffffffff1681565b60008060149054906101000a900467ffffffffffffffff16905090565b60016020528160005260406000208181548110610c4657600080fd5b9060005260206000209060070201600091509150508060000154908060010160009054906101000a900467ffffffffffffffff1690806002018054610c8a90611c21565b80601f0160208091040260200160405190810160405280929190818152602001828054610cb690611c21565b8015610d035780601f10610cd857610100808354040283529160200191610d03565b820191906000526020600020905b815481529060010190602001808311610ce657829003601f168201915b505050505090806003018054610d1890611c21565b80601f0160208091040260200160405190810160405280929190818152602001828054610d4490611c21565b8015610d915780601f10610d6657610100808354040283529160200191610d91565b820191906000526020600020905b815481529060010190602001808311610d7457829003601f168201915b505050505090806004018054610da690611c21565b80601f0160208091040260200160405190810160405280929190818152602001828054610dd290611c21565b8015610e1f5780601f10610df457610100808354040283529160200191610e1f565b820191906000526020600020905b815481529060010190602001808311610e0257829003601f168201915b505050505090806005018054610e3490611c21565b80601f0160208091040260200160405190810160405280929190818152602001828054610e6090611c21565b8015610ead5780601f10610e8257610100808354040283529160200191610ead565b820191906000526020600020905b815481529060010190602001808311610e9057829003601f168201915b505050505090806006018054610ec290611c21565b80601f0160208091040260200160405190810160405280929190818152602001828054610eee90611c21565b8015610f3b5780601f10610f1057610100808354040283529160200191610f3b565b820191906000526020600020905b815481529060010190602001808311610f1e57829003601f168201915b5050505050905087565b6001600060148282829054906101000a900467ffffffffffffffff16610f6b9190611b31565b92506101000a81548167ffffffffffffffff021916908367ffffffffffffffff1602179055506000610f9c88610822565b905060006040518060e001604052808381526020018961ffff1667ffffffffffffffff168152602001888152602001878152602001868152602001858152602001848152509050600160003373ffffffffffffffffffffffffffffffffffffffff1673ffffffffffffffffffffffffffffffffffffffff1681526020019081526020016000208190806001815401808255809150506001900390600052602060002090600702016000909190919091506000820151816000015560208201518160010160006101000a81548167ffffffffffffffff021916908367ffffffffffffffff16021790555060408201518160020190805190602001906110a19291906112a5565b5060608201518160030190805190602001906110be9291906112a5565b5060808201518160040190805190602001906110db9291906112a5565b5060a08201518160050190805190602001906110f89291906112a5565b5060c08201518160060190805190602001906111159291906112a5565b50505080600260008481526020019081526020016000206000820151816000015560208201518160010160006101000a81548167ffffffffffffffff021916908367ffffffffffffffff16021790555060408201518160020190805190602001906111819291906112a5565b50606082015181600301908051906020019061119e9291906112a5565b5060808201518160040190805190602001906111bb9291906112a5565b5060a08201518160050190805190602001906111d89291906112a5565b5060c08201518160060190805190602001906111f59291906112a5565b509050503373ffffffffffffffffffffffffffffffffffffffff167ff2345eb66c3c4709a03e75beb007bede6b55d6434372261f5bd66c9c0cc95d76838a8a8a8a8a8a60405161124b979695949392919061192b565b60405180910390a2505050505050505050565b6040518060e0016040528060008152602001600067ffffffffffffffff16815260200160608152602001606081526020016060815260200160608152602001606081525090565b8280546112b190611c21565b90600052602060002090601f0160209004810192826112d3576000855561131a565b82601f106112ec57805160ff191683800117855561131a565b8280016001018555821561131a579182015b828111156113195782518255916020019190600101906112fe565b5b509050611327919061132b565b5090565b5b8082111561134457600081600090555060010161132c565b5090565b600061135b61135684611a9b565b611a6a565b90508281526020810184848401111561137357600080fd5b61137e848285611bdf565b509392505050565b60008135905061139581611cf1565b92915050565b600082601f8301126113ac57600080fd5b81356113bc848260208601611348565b91505092915050565b6000813590506113d481611d08565b92915050565b6000813590506113e981611d1f565b92915050565b60006020828403121561140157600080fd5b600061140f84828501611386565b91505092915050565b6000806040838503121561142b57600080fd5b600061143985828601611386565b925050602061144a858286016113da565b9150509250929050565b60006020828403121561146657600080fd5b600082013567ffffffffffffffff81111561148057600080fd5b61148c8482850161139b565b91505092915050565b600080600080600080600060e0888a0312156114b057600080fd5b600088013567ffffffffffffffff8111156114ca57600080fd5b6114d68a828b0161139b565b97505060206114e78a828b016113c5565b965050604088013567ffffffffffffffff81111561150457600080fd5b6115108a828b0161139b565b955050606088013567ffffffffffffffff81111561152d57600080fd5b6115398a828b0161139b565b945050608088013567ffffffffffffffff81111561155657600080fd5b6115628a828b0161139b565b93505060a088013567ffffffffffffffff81111561157f57600080fd5b61158b8a828b0161139b565b92505060c088013567ffffffffffffffff8111156115a857600080fd5b6115b48a828b0161139b565b91505092959891949750929550565b6000602082840312156115d557600080fd5b60006115e3848285016113da565b91505092915050565b60006115f883836116f6565b905092915050565b61160981611b6f565b82525050565b600061161a82611adb565b6116248185611afe565b93508360208202850161163685611acb565b8060005b85811015611672578484038952815161165385826115ec565b945061165e83611af1565b925060208a0199505060018101905061163a565b50829750879550505050505092915050565b600061168f82611ae6565b6116998185611b0f565b93506116a9818560208601611bee565b6116b281611ce0565b840191505092915050565b60006116c882611ae6565b6116d28185611b20565b93506116e2818560208601611bee565b6116eb81611ce0565b840191505092915050565b600060e08301600083015161170e6000860182611875565b5060208301516117216020860182611893565b50604083015184820360408601526117398282611684565b915050606083015184820360608601526117538282611684565b9150506080830151848203608086015261176d8282611684565b91505060a083015184820360a08601526117878282611684565b91505060c083015184820360c08601526117a18282611684565b9150508091505092915050565b600060e0830160008301516117c66000860182611875565b5060208301516117d96020860182611893565b50604083015184820360408601526117f18282611684565b9150506060830151848203606086015261180b8282611684565b915050608083015184820360808601526118258282611684565b91505060a083015184820360a086015261183f8282611684565b91505060c083015184820360c08601526118598282611684565b9150508091505092915050565b61186f81611bcd565b82525050565b61187e81611baf565b82525050565b61188d81611baf565b82525050565b61189c81611bb9565b82525050565b6118ab81611bb9565b82525050565b60006020820190506118c66000830184611600565b92915050565b600060208201905081810360008301526118e6818461160f565b905092915050565b6000602082019050818103600083015261190881846117ae565b905092915050565b60006020820190506119256000830184611884565b92915050565b600060e082019050611940600083018a611884565b61194d6020830189611866565b818103604083015261195f81886116bd565b9050818103606083015261197381876116bd565b9050818103608083015261198781866116bd565b905081810360a083015261199b81856116bd565b905081810360c08301526119af81846116bd565b905098975050505050505050565b600060e0820190506119d2600083018a611884565b6119df60208301896118a2565b81810360408301526119f181886116bd565b90508181036060830152611a0581876116bd565b90508181036080830152611a1981866116bd565b905081810360a0830152611a2d81856116bd565b905081810360c0830152611a4181846116bd565b905098975050505050505050565b6000602082019050611a6460008301846118a2565b92915050565b6000604051905081810181811067ffffffffffffffff82111715611a9157611a90611cb1565b5b8060405250919050565b600067ffffffffffffffff821115611ab657611ab5611cb1565b5b601f19601f8301169050602081019050919050565b6000819050602082019050919050565b600081519050919050565b600081519050919050565b6000602082019050919050565b600082825260208201905092915050565b600082825260208201905092915050565b600082825260208201905092915050565b6000611b3c82611bb9565b9150611b4783611bb9565b92508267ffffffffffffffff03821115611b6457611b63611c53565b5b828201905092915050565b6000611b7a82611b8f565b9050919050565b600061ffff82169050919050565b600073ffffffffffffffffffffffffffffffffffffffff82169050919050565b6000819050919050565b600067ffffffffffffffff82169050919050565b6000611bd882611b81565b9050919050565b82818337600083830152505050565b60005b83811015611c0c578082015181840152602081019050611bf1565b83811115611c1b576000848401525b50505050565b60006002820490506001821680611c3957607f821691505b60208210811415611c4d57611c4c611c82565b5b50919050565b7f4e487b7100000000000000000000000000000000000000000000000000000000600052601160045260246000fd5b7f4e487b7100000000000000000000000000000000000000000000000000000000600052602260045260246000fd5b7f4e487b7100000000000000000000000000000000000000000000000000000000600052604160045260246000fd5b6000601f19601f8301169050919050565b611cfa81611b6f565b8114611d0557600080fd5b50565b611d1181611b81565b8114611d1c57600080fd5b50565b611d2881611baf565b8114611d3357600080fd5b5056fea26469706673582212208ba260429bc718cf914938176038405476882eb4a7dd86b1ff2568be372013db64736f6c63430008000033",
  "linkReferences": {},
  "deployedLinkReferences": {}
}